:020000040800F2
:10000000004C002031010008590100084906000891
:1000100000000000000000000000000000000000E0
:100020000000000000000000000000005D0100086A
:1000300000000000000000005F0100084D090008FA
:100040006501000867010008690100086B010008EC
:100050006D0100086F010008A9060008BD06000830
:10006000D1060008E5060008F90600087B01000833
:100070007D0100087F01000881010008830100085C
:100080008501000887010008890100088B0100082C
:100090008D0100088F010008910100080D0700087C
:1000A00095010008950D0008990100089B010008C2
:1000B000A90D0008BD0D0008D10D0008ED120008C3
:1000C000A501000809130008A9010008AB010008F8
:1000D000AD01000881090008CD090008150A0008D3
:1000E00055070008B7010008B9010008BB01000866
:1000F000BD010008BF010008C1010008C3010008DC
:10010000C5010008C7010008C9010008CB010008AB
:10011000CD010008CF010008D1010008D30100087B
:10012000D5010008D7010008D9010008DB0100084B
:10013000054820F0070085460448804704480549E3
:10014000016000F04BB800000050002035030008AB
:1001500008ED00E000000008FEE7FEE7FEE7FEE72E
:10016000FEE7FEE7FEE7FEE7FEE7FEE7FEE7FEE767
:10017000FEE7FEE7FEE7FEE7FEE7FEE7FEE7FEE757
:10018000FEE7FEE7FEE7FEE7FEE7FEE7FEE7FEE747
:10019000FEE7FEE7FEE7FEE7FEE7FEE7FEE7FEE737
:1001A000FEE7FEE7FEE7FEE7FEE7FEE7FEE7FEE727
:1001B000FEE7FEE7FEE7FEE7FEE7FEE7FEE7FEE717
:1001C000FEE7FEE7FEE7FEE7FEE7FEE7FEE7FEE707
:1001D000FEE7FEE7FEE7FEE7FEE7FEE735493648C5
:1001E0000A1A02D0072291438D46344934480A1A2C
:1001F00006D00722914381F30988022282F31488F2
:1002000030483149314A00F043F831483149324AE7
:1002100000F03EF831483249324A00F039F83248AD
:100220003249334A00F034F832483349334A00F057
:100230002FF833483349344A00F02AF83348344918
:10024000344A00F025F834483449002200F02BF8F5
:1002500033483449002200F026F833483349091A5C
:10026000082903DB00220260043001601F48204996
:10027000884205D00268043003B4904703BCF7E716
:1002800000208646EC4600200021294A9047FEE7E0
:10029000884207D0521A05D0037801300B70013123
:1002A000013AF9D17047884202D002700130FAE772
:1002B00070470000004C0020004800200050002043
:1002C000004C0020103900080000002038000020F9
:1002D00034030008340300087035000810390008A2
:1002E0000000002000000020703500087035000874
:1002F000703500087035000870350008703500084A
:1003000070350008703500081039000848390008B9
:10031000380000203800002038000020B400002001
:10032000B4000020B8000020B8000020B801002070
:040330002D0800088C
:1003340008B5164A154B1B6843F0010313601349B3
:10034400124B5A68124B13404B60104A0F4B1B68F8
:1003540023F0847323F4803313600C4A0B4B1B6823
:1003640023F480231360094A084B5B6823F4FE03DB
:100374005360064B4FF41F029A6000F075F8054B6A
:100384004FF000629A6000BF08BD00BF0010024039
:100394000000FFF800ED00E084B000230393002385
:1003A4000293002301932B4B5B6803F00C0303932C
:1003B400039B042B07D0082B09D0002B33D1264BE9
:1003C400264A1A6033E0244B244A1A602FE0214B5A
:1003D4005B6803F4701302931E4B5B6803F4803371
:1003E4000193029B9B0C02330293019B002B06D1C9
:1003F400029B1B4A02FB03F3174A136017E0154BD9
:100404005B6803F40033002B06D0029B144A02FB02
:1004140003F3114A13600AE0029B104A02FB03F340
:100424000D4A136003E00C4B0C4A1A6000BF094BE1
:100434005B681B0903F00F030A4AD35CDBB2039326
:10044400054B1A68039B22FA03F3034A136000BFA7
:1004540004B07047001002400000002000127A002F
:1004640000093D000400002008B500F003F800BFB7
:1004740008BD000082B000230193002300933A4A90
:10048400394B1B6843F480331360374B1B6803F408
:1004940000330093019B01330193009B002B03D194
:1004A400019BB3F5A06FF0D12F4B1B6803F400330D
:1004B400002B02D00123009301E000230093009B52
:1004C400012B4DD1294A294B1B6843F010031360BB
:1004D400264A264B1B6823F003031360234A234B4D
:1004E4001B6843F0020313601F4A1F4B5B68536091
:1004F4001D4A1D4B5B6843F4005353601A4A1A4B60
:100504005B6843F480635360174A174B5B6823F4BA
:100514007C135360144A144B5B6843F4E813536030
:10052400114A114B1B6843F08073136000BF0E4BDC
:100534001B6803F00073002BF9D00B4A0A4B5B686D
:1005440023F003035360084A074B5B6843F002033C
:10055400536000BF044B5B6803F00C03082BF9D114
:1005640000BF02B0704700BF0010024000200240EC
:1005740000B583B00190019B0A2B02D10D2001F03C
:1005840091FD019801F08EFD0346184603B05DF815
:1005940004FB000082B000230193234A224BDB6951
:1005A40043F00703D361204A1F4B9B6943F4036361
:1005B40043F00D0393611D4A1C4B1B6823F4400355
:1005C40013601A4A194B1B6843F440131360164A0C
:1005D400154BDB6943F48003D361154A144B5B6804
:1005E40043F440735360124A114B5B6843F48063D5
:1005F40053600F4A0E4B5B6843F4006353600C4A2C
:100604000B4B5B6843F440535360094A084B5B68E7
:1006140043F480435360064A054B5B6843F400434C
:10062400536000BF02B07047001002400008014050
:10063400000C014008B5FFF7AFFEFFF7ABFF00BFAA
:1006440008BD000008B5044801F030FC4F220349FE
:10065400034801F02BFCFEE7703500087C350008E8
:10066400BC35000882B003468DF8073007499DF970
:1006740007305B099DF8072002F01F02012000FAF1
:1006840002F241F8232000BF02B0704700E100E00D
:1006940008B51720FFF7E6FF2820FFF7E3FF00BFA8
:1006A40008BD000082B0034B5B69019300BF02B038
:1006B400704700BF0004014082B0034B5B690193A3
:1006C40000BF02B0704700BF0004014082B0034B7A
:1006D4005B69019300BF02B0704700BF0004014092
:1006E40082B0034B5B69019300BF02B0704700BF47
:1006F4000004014082B0034B5B69019300BF02B068
:10070400704700BF0004014000B583B00F4B5B6924
:100714000193019B03F48073002B06D00B4B4FF421
:1007240080725A610198AFF30080019B03F4007357
:10073400002B06D0054B4FF400725A610198AFF3B9
:10074400008000BF03B05DF804FB00BF000401405B
:1007540000B583B00F4B5B690193019B03F4806385
:10076400002B06D00B4B4FF480625A610198AFF313
:100774000080019B03F40063002B06D0054B4FF46B
:1007840000625A610198AFF3008000BF03B05DF8C6
:1007940004FB00BF0004014082B0034600918DF8C1
:1007A40007309DF90730002B0CDA0D499DF807300E
:1007B40003F00F03043B009AD2B21201D2B20B44ED
:1007C4001A7609E007499DF90730009AD2B212015E
:1007D400D2B20B4483F8002300BF02B0704700BFBD
:1007E40000ED00E000E100E000B583B00190019B62
:1007F400013BB3F1807F01D301230FE0094A019B40
:10080400013B53600F214FF0FF30FFF7C5FF054B4D
:1008140000229A60034B07221A600023184603B093
:100824005DF804FB10E000E000B583B0FFF702FFC1
:100834002C4B1B682C4AA2FB03239B091846FFF789
:10084400D3FF00F063F842F210720121274800F050
:1008540075F9FFF71DFF264800F062FD254801F0F9
:1008640025FB0023019309E0234A019B13441B78D1
:10087400184600F05FFE019B01330193019B0E2B90
:10088400F2DDC02000F0E4FD0023019309E01B4ADF
:10089400019B13441B78184600F04CFE019B013366
:1008A4000193019B0E2BF2DD154B1B68002BFBD033
:1008B400134B00221A60134B1B68002B0CBF01233F
:1008C4000023DBB21A460F4B1A600E4B1B68002B39
:1008D40003D00D4B20221A61E6E70B4B20225A610C
:1008E400E2E700BF00000020D34D62103800002072
:1008F4004C000020D43500081800002028000020F7
:1009040044000020480000200008014000B583B0E6
:10091400094A0121094800F079FA0190019B002B52
:1009240005D08C220649074801F0C0FAFEE700BF53
:1009340003B05DF804FB00BFA08601004C0000205A
:10094400DC350008183600080A4B1B68002B0ED053
:10095400084B1B68013B074A1360064B1B68002BBE
:1009640005D1044B64221A60034B01221A6000BFB4
:10097400704700BF140000204400002038B50E4B1F
:100984000E4D1C882B687BB1A4B2630608D414F006
:10099400280F00D138BD2868BDE8384000F08AB877
:1009A400286800F059F8F2E74FF4D1720449054879
:1009B40001F07CFAFEE700BF003801406C00002023
:1009C400303600087836000838B50D4B0D4D1C88BC
:1009D4006B6873B1A4B2620607D4A30600D438BD11
:1009E4006868BDE8384000F065B8686800F034F81D
:1009F400F3E740F2B7120449044801F057FAFEE75E
:100A0400004400406C0000203036000878360008AE
:100A140038B50D4B0D4D1C88AB6873B1A4B262069A
:100A240007D4A30600D438BDA868BDE8384000F058
:100A340041B8A86800F010F8F3E74FF4E6720449EF
:100A4400044801F033FAFEE7004800406C0000203F
:100A5400303600087836000810B5F0B14269836971
:100A640004469A420ED08369C1695A1C8261806926
:100A74002269C95C90420DD023682046BDE810402D
:100A84005B69184703689B6A9847236B63B1BDE8A9
:100A9400104018470023A361EEE740F22F120349E8
:100AA400034801F003FAFEE710BD00BF90360008CA
:100AB4007836000870B500B3044603689B6998470C
:100AC400616AA26A636A256A0133AB42A8BF002344
:100AD400A56A9D420CD0656AE66A914270556362CC
:100AE40000D070BD636B002BFBD0BDE8704018478D
:100AF400636843F00103636070BD4FF4A47202495C
:100B0400024801F0D3F9FEE7903600087836000871
:100B140082B003468DF8073007499DF907305B0919
:100B24009DF8072002F01F02012000FA02F241F8AA
:100B3400232000BF02B0704700E100E000B58BB095
:100B440003900B4601928DF80B300023069300238B
:100B54000593039B002B05D13C226349634801F0B4
:100B6400A5F9FEE7019B002B05D13D225E495F48B4
:100B740001F09CF9FEE79DF80B30013B032B24D8D0
:100B840001A252F823F000BF9D0B0008A90B000836
:100B9400B70B0008C30B0008554B099319238DF8B4
:100BA400233015E04FF0804309931C238DF8233044
:100BB4000EE0504B09931D238DF8233008E04E4B73
:100BC40009931E238DF8233002E04FF0FF3386E0B3
:100BD400039B099A1A609DF92320039B5A609DF890
:100BE4000B30013B4549039A41F82320099B1B889C
:100BF4009BB223F45E739AB2099B1A80404B5B68E4
:100C040003F4E063B3F5A06F18D0B3F5A06F05D873
:100C1400002B0AD0B3F5806F0BD01EE0B3F5C06F84
:100C240011D0B3F5E06F13D017E0364B1B68079370
:100C340013E0344B1B685B0807930EE0314B1B68D1
:100C44009B08079309E02F4B1B68DB08079304E01C
:100C54002C4B1B681B09079300BF079A019BB2FB2F
:100C6400F3F306930DE0079A019BB2FBF3F30693AB
:100C7400059B01330593059B0133069AB2FBF3F3FD
:100C84000693069B4FF6FE729342ECD8059B002B0D
:100C940003D0059B9AB2099B1A85069B9AB2099BBD
:100CA4009A85099B9B8A9BB243F001039AB2099BE4
:100CB4009A82099B1B889BB243F081039AB2099BD9
:100CC4001A80099B9B899BB243F001039AB2099B4A
:100CD4009A819DF923301846FFF71AFF002318461E
:100CE4000BB05DF804FB00BFDC36000824370008B5
:100CF400002C01400004004000080040780000205F
:100D0400001002400000002000B587B00190019B54
:100D14001B680493019B002B05D1B6221A491B487A
:100D240001F0C4F8FEE7049B1B8A9BB20393039B68
:100D340003F00103002B22D0049B1B8A9BB223F0F7
:100D440001039AB2049B1A82019B9B68002B16D064
:100D5400019B9B6805930FE0059B1B68002B05D145
:100D6400C3220949094801F0A1F8FEE7059B1B6865
:100D74009847059B5B680593059B002BECD100BF4E
:100D840007B05DF804FB00BFDC3600082437000818
:100D940008B5034B1B681846FFF7B6FF00BF08BD34
:100DA4007800002008B5034B5B681846FFF7ACFFDA
:100DB40000BF08BD7800002008B5034B9B681846A7
:100DC400FFF7A2FF00BF08BD7800002008B5034B61
:100DD400DB681846FFF798FF00BF08BD78000020C5
:100DE40082B003468DF8073007499DF907305B0947
:100DF4009DF8072002F01F02012000FA02F241F8D8
:100E0400232000BF02B0704700E100E000B589B0C4
:100E140003900B4601928DF80B30039B002B05D1F8
:100E24004A224C494C4801F041F8FEE79DF80B304A
:100E3400002B02D0012B06D00BE0484B07931F2355
:100E44008DF81B3008E0464B079321238DF81B30A7
:100E540002E04FF0FF3379E0039B079A1A60039A8C
:100E6400137E6FF300031376039B00221A61039B26
:100E740000225A619DF80B303A49039A41F8232025
:100E8400079B00221A80079B1B889BB223F0010357
:100E94009AB2079B1A80344B5B6803F4E063B3F5A2
:100EA400A06F18D0B3F5A06F05D8002B0AD0B3F506
:100EB400806F0BD01EE0B3F5C06F11D0B3F5E06FB7
:100EC40013D017E0294B1B68059313E0274B1B68CD
:100ED4005B0805930EE0254B1B689B08059309E00E
:100EE400224B1B68DB08059304E0204B1B681B099D
:100EF400059300BF079B9B889BB223F4815323F087
:100F04001F039AB2079B9A80079B9B889AB2059B02
:100F14009BB213439AB2079B9A80079B9B8B9AB20E
:100F2400134B13439AB2079B9A83079B02221A849A
:100F3400079B1B889BB243F001039AB2079B1A805C
:100F44009DF91B301846FFF74BFF0023184609B0E4
:100F54005DF804FB3C37000880370008005400406B
:100F640000580040880000200010024000000020CB
:100F74001B80FFFF00B587B0039001930B468DF8EB
:100F84000B3013468DF80A30039B002B05D19622B3
:100F94001A491B4800F08AFFFEE7039B1B68059370
:100FA400039B9DF80B201A71039B9DF80A205A712C
:100FB400039B019A9A60039B9DF820201A73039A5D
:100FC400137E43F004031376039B00225A61039BB0
:100FD40000221A61059B1B889BB243F480739AB26A
:100FE400059B1A80059B9B889BB243F400739AB2BD
:100FF400059B9A8000BF07B05DF804FB3C370008EE
:101004008037000800B585B0039002910192039BDC
:10101400002B05D1CA221249124800F047FFFEE70F
:10102400029B002B05D1CB220D490E4800F03EFF58
:10103400FEE7019B002B05D1CC220949094800F0A9
:1010440035FFFEE7029B019A1A60039BDA69029B53
:101054005A60039B029ADA6100BF05B05DF804FB95
:101064003C3700088037000800B587B00190009134
:10107400009B9B8A9BB20493009B1B8B9BB20393A4
:10108400019B002B05D1E2229549964800F00EFF02
:10109400FEE7039B002B01D000230393049B03F082
:1010A4000103002B1ED0019B1B7E03F00103DBB266
:1010B400002B08D0019B1B7943F00103DBB29AB2E9
:1010C400009B1A8207E0019B1B799BB203F0FE038D
:1010D4009AB2009B1A82019B00221A61019B002292
:1010E4005A61F9E0049B03F00203002B1FD0019B1B
:1010F4001B7E03F00103DBB2002B12D0019A137E96
:101104006FF300031376019B1B7B012B40F0E380FC
:10111400009B1B889BB223F480639AB2009B1A80C5
:10112400D9E0019B5B799AB2009B1A82D3E0019BC0
:101134001B7E03F00403DBB2002B4FD0049B03F0AF
:101144008003002B00F0C880049B03F00403002BF1
:1011540000F0C280019B1B69019A127B93422DDB34
:10116400009B1B889BB243F400739AB2009B1A80C5
:10117400009B9B889BB223F400739AB2009B9A80D5
:10118400019BDB69002B00F0A780019BDB690593C1
:1011940010E0059B1B68002B06D14FF49072504958
:1011A400504800F083FEFEE7059B1B689847059BAB
:1011B4005B680593059B002BEBD18DE0019B9B683D
:1011C400591C019A91601B78DBB29AB2009B1A8277
:1011D400019B1B695A1C019B1A617DE0019B1B7ECC
:1011E40003F00203DBB2002B12D0019A137E6FF3DB
:1011F40041031376019A137E43F001031376009B97
:101204001B889BB243F480739AB2009B1A8063E0FC
:10121400049B03F04003002B5ED0019B9B68591C88
:10122400019A9160009A128A92B2D2B21A70019B0A
:101234005B695A1C019B5A61019B1B7B012B17D9CB
:10124400019B5A69019B1B7B013B9A4218D1009B6D
:101254001B889BB223F480639AB2009B1A80009B84
:101264001B889BB243F400739AB2009B1A8007E078
:10127400009B1B889BB243F400739AB2009B1A80B4
:10128400019B5B69019A127B934225DB009B9B883F
:101294009BB223F400739AB2009B9A80019BDB6992
:1012A400002B19D0019BDB69059310E0059B1B689B
:1012B400002B06D14FF4AD7209490A4800F0F6FD3F
:1012C400FEE7059B1B689847059B5B680593059B98
:1012D400002BEBD100E000BF07B05DF804FB00BFBA
:1012E4003C3700088037000808B5044B1B680449E4
:1012F4001846FFF7B9FE00BF08BD00BF88000020F4
:101304000054004008B5044B5B6804491846FFF7D5
:10131400ABFE00BF08BD00BF88000020005800409D
:1013240000B583B00190114A019B13600F4B1B68F9
:101334000F4A10491846FFF765FE032000F088F8AD
:10134400022000F085F8282000F082F80C2000F03C
:101354007FF80E2000F07CF8062000F079F80120D8
:1013640000F076F800BF03B05DF804FB90000020A5
:10137400551500089400002000B585B003468DF88B
:101384000F30072200212C4800F0C0FD2A4B09220F
:101394001A70294B0D225A70274B5A78264B9A7093
:1013A4009DF80F3003F0F0031946244800F07EFD49
:1013B400214B9B785AB29DF90F3023F00F035BB297
:1013C40013435BB2DAB21C4B9A701B4B4922DA709E
:1013D400194B0D221A719DF80F301B01DBB219460F
:1013E400174800F063FD144B1A79134B5A71124BD2
:1013F4005B795AB29DF80F301B015BB213435BB2A9
:10140400DAB20D4B5A710C4B19229A710D4B1868B4
:10141400094BDAB2062300930B4B4E21FFF7AAFDCA
:1014240000BF0A4B1B68002BFBD0084B00221A603C
:1014340000BF05B05DF804FBA00000209837000849
:10144400A837000890000020A10000209C00002084
:1014540000B585B003468DF80F30072200212E48D1
:1014640000F054FD2D4800F021FD2B4B08221A708A
:10147400294B0C225A70284B5A78274B9A709DF8A6
:101484000F3003F0F0031946254800F00FFD224BFE
:101494009B785AB29DF90F3023F00F035BB21343CC
:1014A4005BB2DAB21C4B9A701B4B4822DA701A4BAF
:1014B4000C221A719DF80F301B01DBB21946194832
:1014C40000F0F4FC144B1A79134B5A71124B5B79EC
:1014D4005AB29DF80F301B015BB213435BB2DAB210
:1014E4000D4B5A710C4B18229A710F4B18680A4B0A
:1014F400DAB2062300930D4B4E21FFF73BFD00BFEC
:101504000B4B1B68002BFBD0094B00221A6000BF59
:1015140005B05DF804FB00BFA0000020B837000848
:1015240098370008A837000890000020A100002088
:101534009C00002000B583B003468DF807309DF869
:1015440007301846FFF718FF00BF03B05DF804FB2F
:10155400024B01221A6000BF704700BF9C000020AC
:1015640000487047AC0000207047704770477047D0
:1015740050EA010308BF704711F000424FEA1252CB
:1015840042F4806242F03D0240F104800023404274
:1015940063EB0101002902BF01460020203AB1F5A6
:1015A400803F3FBF103A090441EA10410004B1F101
:1015B400807F3FBF083A090241EA10610002B1F19D
:1015C400805F3FBF043A090141EA1071000111F044
:1015D400404F01BF023A890041EA907180000942FC
:1015E4005FBF490041EAD0714000013A83054FEAE8
:1015F400D02040EA41504FEAD12108BF10F0010F3A
:1016040001EB025198BF7047013041F1000170476E
:1016140050EA010308BF70475FF4806242F03D0264
:10162400FFF7B8BF4B001AD25A0DA2F54072FF3A29
:1016340015D4D2F13F0215DBC90241EA5051C00270
:1016440041F00041202A22BF08460021B2F12002C5
:10165400D141D04048409140D1404840704700209B
:10166400002170476FF000010846704781F0004187
:1016740083F0004383F00043F0B491EA030F00F1D8
:101684008E80841A71EB030603D212197341001B76
:10169400B1414FF07F4646F4600616EA410F08BF99
:1016A40062E0B6EB410F98BF69E04FEA1154A4EB36
:1016B4001357B14341F4801116EA430F07BF0023C7
:1016C4000022B34343F48013D7F1200634D303FA42
:1016D40006F5401941F1000122FA07F5401923FAF1
:1016E40007F541EB050102FA06F211F4001F19D1C6
:1016F40021F4801101EB0451F0BCB2F1004F08BF9A
:1017040010EA500F50F1000041F100014FF07F4307
:1017140043F46003B3EB410F88BF7047090D09051B
:101724000020704749085FEA30005FEA320228BFB0
:1017340042F001020134DBE7203F402F19D223FAA3
:1017440007F5401941F10001C7F12006124218BF04
:10175400012203FA06F52A43C7E711EA560F04BF2C
:1017640000200021F0BC704701F000410020F0BCD3
:10177400704721F4801101EB0451F0BC7047004222
:1017840018BF41F00101B6EB410F04BFF0BC704734
:101794004FF0FE4141F478010020F0BC704783F023
:1017A4000043841A71EB030705D287F00047001B3E
:1017B400B94112197B415FF07F4656F4600616EA80
:1017C400430FCAD0B6EB410F40F28C800C0DA4EB52
:1017D4001357C90241EA5051C00241F00041DB02F3
:1017E40043EA5253D20243F00043D7F120065AD3BE
:1017F40002FA06FCFA4003FA06F52A43FB401CEA07
:101804000C0F18BF42F00102801A9941E30A6405E3
:10181400640D11F0404F2ED427D1002902BF014698
:101824000020203C00295BD0B1F5803F3FBF103C35
:10183400090441EA10410004B1F1807F3FBF083C34
:10184400090241EA10610002B1F1805F3FBF043C2C
:10185400090141EA1071000111F0404F01BF023C3F
:10186400890041EA9071800009425FBF013C490050
:1018740041EAD0714000002C11DD420521F0004105
:10188400C00A40EA4150C90A41EAC371460872F1EC
:10189400004250F1000051EB0451F0BC70470020AD
:1018A400D907F0BC7047A7F12007202F0CD2C7F14D
:1018B400200603FA06F5FB402A4318BF43F0010350
:1018C400C01A61F10001A1E721F00041C00A40EA19
:1018D4004150C90A01EB0451F0BC704700200021BB
:1018E400F0BC7047004218BF41F00101B6EB410F54
:1018F4007FF44EAFB6EB430F3FF44AAFF0BC7047F2
:10190400F0B5574F81EA030517EA010E1EBF9EEAA0
:10191400070F17EA030494EA070F64D04EEAD57E52
:10192400A64421EA470141F4801123EA470343F422
:101934008013A1FB0247A0FB036536197D41A1FB7F
:10194400034747F10003A0FB0217F619654153F161
:101954000003094218BF46F001061427B3F5007FBF
:1019640047F1000734BF3F4A3F4ABEEB020E31D471
:10197400C7F1200403FA04F105FA04F025FA07F28A
:10198400114326FA07F2104316FA04F421F48011E5
:101994004FEA5E0741EA47010AD0B4F1004F50F123
:1019A400000041F10001B4F1004F08BF20F0010034
:1019B4002B4F1EEA070F10D041EACE71BE453CBF43
:1019C400BDE8F04070472649002041EACE71BDE8E9
:1019D400F04070471EEB020EF5D44FEACE710020A2
:1019E400BDE8F0407047394204BF01F000410020D7
:1019F400004218BF41F001013B4204BF03F0004321
:101A04000022124218BF43F0010307EA0304BC4258
:101A140018BF9EEA070F05D005F000410020BDE87D
:101A2400F040704721F0004123F00043B9420FD841
:101A3400BB420DD8002918BF002B09D005F0004186
:101A440041F0FE4141F470010020BDE8F0407047D0
:101A54004FF0FE4141F478010020BDE8F0407047AA
:101A64000000F07F0000F03F0000E03FF0B581EAA5
:101A7400030E0EF0004E814F17EA41051EBF95EA92
:101A8400070F17EA430494EA070F00F0C5806D0DB1
:101A9400A5EB545707F580674FF0004646EAC1248A
:101AA40044EA5054C00246EAC32343EA5253D202E2
:101AB400801A9C4104D20018644180185C41013FA3
:101AC4005B084FEA32020025002140F001004FF08C
:101AD400070604E0801A9C4136D340416441801AD1
:101AE4009C4136D340416441801A9C4136D34041E5
:101AF4006441801A9C4136D340416441801A9C4120
:101B040036D340416441013E17D0801A9C4136D3FC
:101B140040416441801A9C4136D340416441801A5B
:101B24009C4136D340416441090201EB15612D0209
:101B3400454020F0FF004540CCE7801A9C4156D335
:101B440035E080185C41C8D20018644180185C41BB
:101B5400C8D20018644180185C41C8D2001864419E
:101B640080185C41C8D20018644180185C41C8D216
:101B740000186441013E17D080185C41C8D2001897
:101B8400644180185C41C8D20018644180185C41EB
:101B9400C8D200186441090201EB15612D024540C9
:101BA40020F0FF004540CCE780185C411FD3420978
:101BB40018BF44F00104490101EBD56100F01F0096
:101BC40000EB451021F4801141EA0E01013041F18E
:101BD4000001244208BF20F00100B7F5006F3EDA8F
:101BE400013F49DD01EB0751BDE8F0407047490171
:101BF40001EBD56100F01F0000EB451021F48011CA
:101C040041EA0E01B7F5006F29DA013F34DD01EB3B
:101C14000751BDE8F0407047004218BF41F0010190
:101C2400124218BF43F00103B7EB410F2CBFB7EBCF
:101C3400430F1CE0B7EB410F04BFB7EB430F16E0B3
:101C440017EA410F04BF17EA430F10E017EA410FE8
:101C540012D017EA430F02D0B7EB430F0CD04EF06B
:101C6400FE4141F470010020BDE8F04070474FF0A0
:101C7400FE4141F47801F6E77146F4E70000E0FF25
:101C84004FF4001C1CEB410F98BF1CEB430F0CD806
:101C940050EA410C08BF52EA430C08D0904208BFF6
:101CA40099420CBF0120002070470020704701209A
:101CB400704700BF4FF4001C1CEB410F98BF1CEB96
:101CC400430F11D851EA030C50EA4C0C5CEA020CA5
:101CD4000CD004D282428B41804101307047904243
:101CE40099418041013070470020704701207047BE
:101CF4004FF4001C1CEB410F98BF1CEB430F11D891
:101D040051EA030C50EA4C0C5CEA020C0CD004D2ED
:101D14009042994180410130704782428B41804119
:101D24000130704700207047012070474FF4001CB9
:101D34001CEB410F98BF1CEB430F11D851EA030C65
:101D440050EA4C0C5CEA020C0AD004D2904299414D
:101D540080414042704782428B41804140427047FB
:101D6400002070474FF4001C1CEB410F98BF1CEB84
:101D7400430F11D851EA030C50EA4C0C5CEA020CF4
:101D84000AD004D282428B41804140427047904243
:101D940099418041404270470020704701F0004063
:101DA400704700BF0128494111F5001F0CBF0120F5
:101DB400002070470128494111F5001F8CBF012004
:101DC4000020704770B5041E07DB002CC8BF002636
:101DD40020DD00201149124D08E06442002C16DD7C
:101DE4000126F6E764100835002C07DD14F0010F16
:101DF400F8D0D5E90023FFF783FDF3E736B10246B7
:101E04000B4600200549FFF731FE70BD70BD002070
:101E14000249F4E70020014970BD00BF0000F03F13
:101E2400F837000838B504460846A16841B123686C
:101E340062685D1C954208BF0020934208D2C854D2
:101E4400E3682BB121686268914201D22146984728
:101E540023680133236038BD70B54C1E09D416467F
:101E6400C5B229463046FFF7DDFF013CB4F1FF3F20
:101E7400F7D170BD10F0100F09D108B500F400704F
:101E8400002814BF30202020FFF7E6FF08BD70476C
:101E94000028B8BF4042704700B5FFF761FB024B12
:101EA40018445DF804FB00BF080000000FB410B52F
:101EB40086B008AB53F8044B0593002303936FF0EB
:101EC40000430293084B0493FFF74EFB059A214607
:101ED40001A800F0F3F80446FFF747FB204606B0DC
:101EE400BDE8104004B070477505000803784BB195
:101EF40051B10144034613F8012F0AB18B42FAD1C0
:101F0400181A70470346FBE70346F9E78446002A9C
:101F14002DD010F0030F04D000F8011B013A26D095
:101F2400F7E7C9B241EA012141EA0141202A12D36B
:101F3400A2F120022DE9F0030B460C460D460E4695
:101F44000F4688468946A0E8FA03203AFBD2BDE84A
:101F5400F00320320BD0042A05D340F8041B043AC2
:101F640005D0042AF9D200F8011B013AFBD16046DE
:101F7400704700BF00F1010110F0030F11D010F8F9
:101F8400012B002A23D010F0030F0AD010F8012BE4
:101F9400002A1CD010F0030F03D010F8012B002AE4
:101FA40015D02DE970004FF001324FF0803350F816
:101FB400044BA4EB020525EA04051D4000D1F6E715
:101FC400A0F1040070BC10F8012B002AFBD1A0EB97
:101FD4000100704753EA020C61D02DE9F04BB3FACB
:101FE40083F51E0007BFB2FA82F502FA05F403FA7C
:101FF40005F41646C5F120051EBF22FA05F73C4339
:10200400203556EA044C4FEA144418BF0134A34661
:102014004FF00009C846904271EB030C39D30942D2
:1020240007BFB0FA80F700FA07F6B1FA81F701FAB0
:1020340007F6C7F120071EBF20FA07FC46EA0C0684
:102044002037B6FBFBFC7F1B103F07F01F04C4F1D5
:1020540020060CFA04F42CFA06F644BF3446002693
:10206400202FA4BF2646002454EA060C08BF0124EE
:1020740018EB040849EB0609A4FB027CC01B06FB11
:1020840002CC04FB03CC71EB0C01904271EB030C0A
:10209400C5D20B46024649464046BDE8F08BB2FB2A
:1020A400F3F200BF10B504460146172001F0A0F872
:1020B40000280CBF20464FF0FF3010BD2DE9F04F33
:1020C40095B004900B9200230360894672E30025C7
:1020D40002E045F040052646344614F8010BA0F111
:1020E40020033E2B00F2948001A252F823F000BF9B
:1020F400D72000081522000815220008F121000845
:10210400152200081522000815220008F7210008EE
:1021140015220008152200081522000803220008D1
:1021240015220008092200081522000815220008BB
:102134000F220008152200081522000815220008A5
:10214400152200081522000815220008152200088F
:10215400152200081522000815220008152200087F
:10216400152200081522000815220008152200086F
:10217400152200081522000815220008152200085F
:10218400152200081522000815220008152200084F
:10219400152200081522000815220008152200083F
:1021A400152200081522000815220008152200082F
:1021B400152200081522000815220008152200081F
:1021C400152200081522000815220008152200080F
:1021D40015220008152200081522000815220008FF
:1021E4001522000815220008FD21000845F080058D
:1021F40071E745F400456EE745F480556BE745F01B
:10220400200568E745F0100565E745F4007562E7C9
:102214002A282CD0A0F13003DBB2092B88BF00237D
:102224000CD8002303EB8303303800EB430314F88A
:10223400010BA0F13002D2B2092AF3D923EAE373E5
:1022440002932E281FD04FF00008742846D07A2815
:1022540044D06A2800F0C3806C2800F0C6804C2863
:1022640000F0D180682800F0DF80A14639E00B9BA4
:102274001A1D0B921B68002BBCBF5B4245F0100576
:102284002078B41CDAE7621C20782A281CD0A0F13C
:102294003003DBB2092B88BF4FF0000810D84FF091
:1022A400000808EB8808303800EB480812F8010BE6
:1022B400A0F13003DBB2092BF3D9B8F1000F0BDB2B
:1022C40045F480751446C0E70B9B1A1D0B92D3F896
:1022D4000080A21C6078F0E71446B6E704F1010917
:1022E4002078782800F2AE80DFE810F05407AC00C4
:1022F400AC00AC00AC00AC00AC00AC00AC00AC007A
:10230400AC00AC00AC00AC00AC00AC00AC00AC0069
:10231400AC00AC00AC00AC00AC00AC00AC00AC0059
:10232400AC00AC00AC00AC00AC00AC00AC00AC0049
:10233400AC00AC00AC00AE00AC00AC00AC00AC0037
:10234400AC00AC00AC00AC00AC00AC00AC00AC0029
:10235400AC00AC00AC00AC00AC00AC00AC00AC0019
:10236400AC00AC00AC00AC00AC00AC00AC00AC0009
:10237400AC00AC00AC00FE0173027802AC00AC000F
:10238400AC00AC00AC00AC00AC00AC00AC00AC00E9
:10239400AC00AC00AC00AC00AC00AC001101AC0073
:1023A400AC00AC00AC00AC00AC00AC00AC00AC00C9
:1023B400AC00B3006201000275027A02AC00620153
:1023C400AC00AC00AC00AC00CA004D01EF00AC00A6
:1023D400AC00E300AC005A01AC00AC00130145F0C2
:1023E400020504F1010920787BE720786C2804D0E9
:1023F40004F1010945F0010573E745F0020504F114
:10240400020960786DE745F00105B44B1E68002EA3
:1024140000F0AF860BAB0193CDF80080029B2A46F7
:102424000499B047A146C5E12078682804D004F196
:10243400010945F0040554E745F0080504F10209D3
:1024440060784EE74C46E0E725210498FFF7EAFC64
:10245400B0E10B9B1A1D0B921C78029B5E1E049F1D
:102464003A4631462846FFF705FD21463846FFF730
:10247400D9FC9BE1049A31462020FFF7EDFC99E159
:1024840015F0080F0DD115F0020F0B9B03F1040298
:102494000B921B68049A12681A601CBF00225A60CF
:1024A40088E10B9B1A1D0B921B68049A12681A7020
:1024B40080E10B9B1A1D0B92D3F800A02E464FE12E
:1024C4005046FFF757FD04465AE10B990B1D0B9339
:1024D4000A68002392469B4605F080035B450CBFC7
:1024E4005B462323059345F480754FF00808524654
:1024F4005B465AEA0B0100F026860DAE002405F473
:102504000057DFF8DCC1DFF8DCE100F0E7BD45F49B
:10251400005515F0800F33D043F2580343F278028C
:10252400782818BF1A46059215F4807F01D025F447
:10253400007515F4804F5AD015F0020F40D00B9B54
:10254400073323F0070303F108020B92D3E900AB2E
:1025540015F0040F3CD00FFA8AFA4FEAEA7BBAF17D
:10256400000F7BF100033BDB15F0200F40F0B2803D
:1025740005F04003002B059B18BF2023059349E079
:1025840000230593D0E705F08003002B0CBF002344
:102594003023059315F4807FCBD025F40075C8E76C
:1025A40015F4807F09D025F4007500230593C0E756
:1025B40045F4804500230593BBE700230593B8E762
:1025C4000B9B1A1D0B921B689A464FEAE37BBFE7ED
:1025D40015F0080FC3D00AF0FF0A4FF0000BC3E751
:1025E400DAF1000A6BEB4B0B2D23059312E015F087
:1025F400020F5FD00B9B073323F0070303F108029C
:102604000B92D3E900AB15F0040F5BD01FFA8AFAE2
:102614004FF0000B15F4807F00F0FB8425F4007567
:102624005838202800F28D8501A353F820F000BF0C
:10263400F3240008473100084731000847310008F7
:102644004731000847310008473100084731000886
:102654004731000847310008473100084731000876
:102664009D30000847310008473100084731000811
:10267400473100089D300008473100084731000801
:102684004731000847310008473100081F3000086F
:10269400F324000847310008473100084731000897
:1026A400473100089D3000084731000847310008D1
:1026B400F32400080B990B1D0B930A680023924620
:1026C4009B46A0E715F0080FA4D00AF0FF0A4FF0CC
:1026D400000B9FE72B2305939CE700BFA800002075
:1026E400CC370008DC37000845F4005545F4806613
:1026F4000B9B073323F0070303F108020B92D3E982
:102704000045A246AB4616F4807F6CD0B8F1000FAA
:1027140008D106F44068B8F5406F14BF4FF00008C4
:102724004FF0010820462946FFF73CFB002866D0FD
:102734000022002320462946FFF7F8FA002855D145
:1027440006F40053B149B24A002B14BF13460B469A
:1027540016F0200F14BF9A4603F1010A26F480767E
:10276400AC4BBAF1000F08BF9A4626F4007516F474
:10277400807F3FF4A5AE41465046FFF7B7FB0446C1
:10278400029B1E1B049A31462846FFF773FB631E07
:1027940005935CB153460AF1010A19780498FFF7CE
:1027A40041FB013CF6D14FF0FF33059315F0100FB8
:1027B4007FF460AE09F1010699F80010002900F0D9
:1027C400DB8425293FF483AC0498FFF72BFBB14647
:1027D400F0E745F4005545F4006689E745F40055F3
:1027E40045F4406684E74FF006089BE706F400537F
:1027F400894A8A49002B14BF8A469246AEE720468E
:102804002946FFF7D7FA074650B106F40051844B26
:10281400844A002914BF92469A4626F480769FE79C
:1028240020462946FFF7BAFA38B146F06006089404
:1028340005F100430993DDE908AB13AA5046594654
:1028440000F0EEFC139B03EB4303774A82FB031275
:10285400DB17C3EBA203139300220023504659460F
:10286400FFF70EFA002840D006F44064B4F5806FF8
:102874005DD0B4F5406F54D016F4806F00F04982F7
:10288400139B0E2B00F344820133A8EB0308B8F129
:10289400100FA8BF4FF0100816F0800F40F03982D7
:1028A400B8F1000F00F035824046FFF78BFA02467C
:1028B4000B4650465946FFF723F800225B4BFEF7C0
:1028C400DBFE00F04FFD0022594B00F099FD002281
:1028D4000023FFF7D5F9002800F01B82B8F10108A6
:1028E400E2D116E2139B0133139313980130FFF7DF
:1028F40069FA02460B4650465946FFF733FA002858
:10290400F0D102E0139B013B13931398FFF75AFA9B
:1029140002460B4650465946FFF708FA0028F1D103
:10292400A2E7139B984502DD13F1040FA4DA139870
:10293400B0F59A7F0BD04042FFF744FA02460B46AB
:1029440050465946FEF7DCFF82468B4608E02DA32D
:10295400D3E9002350465946FFF788F882468B4650
:1029640050465946CDE9060100220023FFF788F9B5
:10297400002861D0B8F1000F00F0C280B4F5406FB8
:1029840000F0BC80C8F10000FFF71CFA0022274BBE
:10299400FEF7B6FF52465B46FEF76EFE04460D4652
:1029A40082468B460022224BFFF7A2F9002840F012
:1029B400BC8006F40863B3F5006F00F0D18026F400
:1029C4000063069308F10503029AD31A0293029B4B
:1029D400013B029316F4805F00F01981139C154BA0
:1029E40083FB0423A3EBE47303EB4303E31A0233F3
:1029F400042B00F20A81DFE813F0EA00F900E60094
:102A0400EA00F900A0C8EB85F3CCE17F5838000850
:102A14005038000868380008483800084038000872
:102A24006438000860380008676666660000E03FA6
:102A34000000244056555555DDE90601FFF7B2F96B
:102A440000283BD10022A94BDDE90601FFF750F92C
:102A540090B1139D01350022A44BDDE90601FFF777
:102A640005F8CDE906010022A04BFFF741F9002843
:102A7400F0D11395DDE906AB50465946CDE9060180
:102A840000229B4BFFF752F900283FF473AF139DCC
:102A9400013DAA460022954BDDE90601FEF730FF11
:102AA400CDE90601013D0022914BFFF73FF90028D3
:102AB400EFD1CDF84CA0DDE906AB5BE700220023A3
:102AC400DDE90601FFF732F940B106F40053894A03
:102AD4008949002B14BF8A4692460CE006F4005242
:102AE4008649874B002A08BF0B469A4616F0200FEA
:102AF40008BF03F1010A26F4807631E608F1FF38B5
:102B0400C8F10000FFF75EF900227E4BFEF7F8FEE5
:102B140052465B46FEF7B0FD04460D4682468B46A0
:102B24000022724BFFF7E4F850B1139B0133139367
:102B340000226E4B20462946FEF798FF82468B46BC
:102B4400B8F1000F7FF435AF26F400630693029BBF
:102B5400053B029316F080083FF43CAFB84636E7D5
:102B6400B8F1100FA8BF4FF010084046FFF72AF93C
:102B740002460B4650465946FEF7C2FEFEF752FD8A
:102B840004460D4654EA0503DED0B8F1000FDBD04D
:102B94000A220023FFF71EFA13437FF410AF08F153
:102BA400FF380A22002320462946FFF713FA044679
:102BB4000D46B8F1000FC7D00A220023FFF70AFA26
:102BC4001343ECD0FBE6012728EAE87820E0002252
:102BD400464B50465946FEF793FE82468B46013CCF
:102BE4001394029B013B02930227EDE70022464B1C
:102BF40050465946FEF784FE82468B46023C1394A7
:102C0400029B023B02930327DEE7059FDCE70127D3
:102C140016F0600F02D0029B013B02931398FFF75A
:102C240037F9632802DD029B013B02935046594663
:102C3400FEF7F8FC04460D46FEF7EAFC02460B4696
:102C440050465946FEF716FD82468B46029B23EA00
:102C5400E3730593069A12F4047F14D19BB12026E2
:102C6400CDE902454D46C146B8461F46013F3146AF
:102C74000498FFF7D7F8002FF8D105974746C846C0
:102C8400A946DDE90245069A12F0200F00F0C5803E
:102C940002F04003002B14BF2D212B210498FFF7D1
:102CA400C1F8069B13F0100F15D1059B9BB130267C
:102CB400CDE902454D46C146B8461F46013F31465F
:102CC4000498FFF7AFF8002FF8D105974746C84698
:102CD400A946DDE9024507F10053013B0B4E06EB23
:102CE400C306CDE902ABDDF810B0A5E00000244036
:102CF4000000F03F48380008403800085838000801
:102D0400503800080000E03F0000594070380008C7
:102D1400B84626F480630693139B103BC8F1000069
:102D24008342A8BF1846FFF74DF84FF0FF3200F07A
:102D34009BFA02460B4650465946FEF79DFC8246D6
:102D44008B4604460D4613980130FFF73BF80246C4
:102D54000B4650465946FFF705F810B1139B013353
:102D640013931398002850DB102838DCA246AB4696
:102D740020462946FEF756FC04460D46FEF748FC5D
:102D840002460B4650465946FEF774FC82468B4673
:102D940000231393002D08BF0A2C3CD3BA4B012700
:102DA4000137F3E902018D4208BF8442F8D208EBEF
:102DB4000703139A1344029AD31A0293B8F1000F2B
:102DC40002D116F0800F02D0029B013B029316F051
:102DD400600F3FF43BAF029B013B029336E7A0F147
:102DE40010031393C0F11000FEF7ECFF02460B46EC
:102DF40020462946FEF784FDFEF714FC04460D46E2
:102E04004FF0000A4FF0000BC4E700231393002493
:102E140000250127CBE70127C9E7069B13F0400FE4
:102E24003FF43FAF20210498FEF7FCFF39E730213F
:102E34005846FEF7F7FF8FB1013F76E802239D4223
:102E440008BF9442F3D330210131C9B2A41A65EB0F
:102E540003059D4208BF9442F6D2E9E7DDE902ABDF
:102E6400069B13F400640CD0139B002B09DD302562
:102E7400013B139329460498FEF7D4FF139B002BC0
:102E8400F6DCB8F1000F26D1069B13F0800F5ED05C
:102E94002E210498FEF7C6FF4646A8EB06082CB37D
:102EA4001398301AFEF78EFF02460B4650465946D9
:102EB400FEF726FDFEF7B6FB04460D46002E3AD07B
:102EC40006F10053013B714F07EBC307CDE902AB99
:102ED400DDF810B01DE02E210498FEF7A3FF46464E
:102EE400102EA8BF102626EAE676D6E73046FEF76F
:102EF40069FF02460B4650465946FEF701FDFEF7B0
:102F040091FB04460D46D9E730215846FEF78AFF67
:102F14008EB1013E77E802239D4208BF9442F3D369
:102F240030210131C9B2A41A65EB03059D4208BFE3
:102F34009442F6D2E9E7B8F1000F08D030244546B0
:102F4400013D21460498FEF76DFF002DF8D1069A45
:102F540012F4806F2FD002F40053002B14BF4521CC
:102F640065210498FEF75EFF139B002B33DB2B21B6
:102F74000498FEF757FF1399632934DC1399444CE2
:102F840084FB0132C917C1EBA2013031C9B2049DDF
:102F94002846FEF747FF139B84FB0324D917C1EB94
:102FA400A40101EB8101A3EB410303F13001C9B298
:102FB4002846FEF737FF059B002B3FF4FBAB20248C
:102FC4001D46013D21460498FEF72CFF002DF8D143
:102FD4000595FFF7EFBB2D210498FEF723FF139B04
:102FE4005B421393C7E72B4C84FB0132C917C1EB37
:102FF40062113031C9B20498FEF714FF139A84FBAE
:103004000234D317C3EB6413642101FB132313931A
:10301400B4E74FF00108FFF703BB52465B465AEA98
:103024000B0108BF002411D00DF13300002402F07D
:103034000701303100F8011F0134D10841EA43711E
:10304400DE080A46334652EA0301F0D1A8EB04082D
:1030540028EAE878029BA3EB0806361B059BFF2BA6
:1030640088BF06F1FF36059B002B00F09680013ED9
:1030740015F4007F69D0059BFF2B71D89DF81410BF
:103084000498FEF7CFFE8BE078380008703800080B
:10309400676666661F85EB515AEA0B0308BF002476
:1030A400D4D0002405F4004356465F46CDE906AB70
:1030B400AB46CDF82890C14698462EE002F00F00AA
:1030C4006044017831700134110941EA037118092F
:1030D4000A460346013652EA0301B7D0002FEDD069
:1030E40002F00F00704401783170ECE714AB1D1945
:1030F4000A22002330463946FEF76CFF303205F8C9
:103104001C2C01340A22002330463946FEF762FFA4
:1031140006460F4656EA07030ED0B8F1000FE5D075
:1031240004F00303032BE1D114AB23444FF02C022E
:1031340003F81C2C0134D9E75D46C846DDF8289015
:1031440084E7002482E7002480E7049A3146284675
:10315400FEF790FE059BFF2B01D8002606E0002613
:10316400059BC3F307210498FEF75CFE059BBBB1E6
:1031740084E7A146FFF71EBB04998B682BB10A684C
:1031840049688A423CBF00219954049B186815B0D1
:10319400BDE8F08F4FF0FF30F9E715F4007FD4D08D
:1031A400049F3A4631462846FEF764FE04973A46A1
:1031B40041463020FEF750FE631E05930DD40DAF3B
:1031C4003C44DDF8108014F8011D4046FEF72AFE49
:1031D400BC42F8D14FF0FF33059315F0100F3FF4C4
:1031E400E9AA049A31462020FEF736FEFFF7E2BA38
:1031F40038B504460D46FEF7B9F9074B1D6044F097
:103204008004064B1C601A461368002BFCD1FEF7A1
:10321400AEF9014B186838BDB0000020AC000020A6
:103224002DE9F04100239046002206460F46FEF7A2
:1032340027FD88B927F0FF4323F4E00343F07F55CB
:10324400C7F30A5345F40015A3F2FE33304629466A
:10325400C8F80030BDE8F081002330463946C8F88C
:103264000030BDE8F08100BF2DE9F0410023904615
:1032740000220F4604460D46FEF702FDB8B940F29F
:10328400FE72C7F30A534344934214DCB8F1000FAF
:1032940001DB002B0FDB002B09DD25F0FF4222F4BC
:1032A400E00242EA035520462946BDE8F0810020A9
:1032B4000021BDE8F081FEF7EFFD0346034A00203C
:1032C400126803491A60BDE8F08100BFF0370008B6
:1032D4000000F07F2DE9F0410024002590462B46A4
:1032E400224606460F46FEF7CBFC30BBC7F30A5313
:1032F400A3F2FF32002A26DB332A2ADC4FF0FF3EFA
:10330400174CC2F120052EFA02F004FA05F5A3F2D7
:103314001F4324FA03F3284324FA02F1184326EA4C
:10332400000027EA010102460B4630463946C8E947
:103334000023FEF79FF9BDE8F081C8E90045204667
:103344002946BDE8F081C8E9004530463946BDE864
:10335400F081C8E9006720462946BDE8F08100BF36
:10336400FFFF0F00F8B50022002304460D46FEF7C8
:1033740087FC80BBC5F30A53A3F2FF32002A204620
:1033840029462BDB332A26DC4FF0FF3E194EC2F1CF
:1033940020072EFA02F4A3F21F4306FA07F726FACF
:1033A40003F33C431C4326FA02F521EA050320EA11
:1033B400040229402040014314461D460BD0002A34
:1033C40073F1000307DA1046294600220A4BFEF780
:1033D40051F904460D4620462946F8BD002C75F1E6
:1033E40000034FF0000403DB002520462946F8BD06
:1033F400024DF0E7FFFF0F000000F03F0000F0BFB8
:103404002DE9F04316461F4683B004460D460022BC
:10341400002330463946FEF733FCF8B920462946E6
:10342400FEF7C8FC20B12046294603B0BDE8F0836E
:1034340030463946FEF7BEFCE0B9002200232046A0
:103444002946FEF71DFC0028EDD120462946FEF74B
:10345400A9FC90B1414BD3E90001E6E7FEF71CFD5E
:1034640003463F4A3D491268D1E900011A6003B09E
:10347400BDE8F08330463946D7E730463946FEF793
:1034840091FC0028CFD13046394600F06BF807464E
:103494000E460B46024629462046FEF7E7FA6A46E0
:1034A400FFF718FFDDE9002338463146FEF728FA16
:1034B40002460B4620462946FEF7DCF800228046E9
:1034C4008946002320462946FEF74CFC10B33846B3
:1034D400314642464B46FEF7EDFBC0B13A46334611
:1034E40040464946FEF7C6F804460D46002200232E
:1034F40020462946FEF71AFC002894D02046294687
:103504003A463346FEF7B8F804460D468BE7444680
:103514004D46EBE73A4606F1004340464946FEF77E
:10352400C9FB38B1404649463A463346FEF7A4F84B
:10353400804689460022002340464946FEF712FC95
:1035440040B13A46334640464946FEF793F80446AE
:103554000D4668E744464D4665E700BFC43700089A
:0C356400EC37000821F00041704700BF68
:1035700048617264206661756C740A00443A5C5359
:10358000454747455220456D626564646564205334
:10359000747564696F2050726F6A656374735C3010
:1035A0002D30204C4142205B4C43445D5C537263A0
:1035B0005C4253505C4253502E6300004572726F60
:1035C00072212048616C7420617420257320256469
:1035D0000D0A00004C43440D0A000000443A5C53BD
:1035E000454747455220456D6265646465642053D4
:1035F000747564696F2050726F6A656374735C30B0
:103600002D30204C4142205B4C43445D5C5372633F
:103610005C6D61696E2E63004572726F7221204885
:10362000616C742061742025732025640D0A0000EC
:10363000443A5C53454747455220456D6265646492
:1036400065642053747564696F2050726F6A656396
:1036500074735C302D30204C4142205B4C43445D00
:103660005C5372635C4253505C554152545C5561EB
:1036700072742E63000000004572726F7221204840
:10368000616C742061742025732025640D0A00008C
:10369000443A5C53454747455220456D6265646432
:1036A00065642053747564696F2050726F6A656336
:1036B00074735C302D30204C4142205B4C43445DA0
:1036C0005C4C69625C436F6D6D6F6E5C4C69625CF3
:1036D00053657269616C2E6300000000443A5C53CC
:1036E000454747455220456D6265646465642053D3
:1036F000747564696F2050726F6A656374735C30AF
:103700002D30204C4142205B4C43445D5C5372633E
:103710005C4253505C54696D65725C54696D6572AE
:103720002E6300004572726F72212048616C742014
:1037300061742025732025640D0A0000443A5C530F
:10374000454747455220456D626564646564205372
:10375000747564696F2050726F6A656374735C304E
:103760002D30204C4142205B4C43445D5C537263DE
:103770005C4253505C4932635C6932632E630000E3
:103780004572726F72212048616C7420617420252B
:10379000732025640D0A0000484E6962626C653D25
:1037A00025690D0A000000004C4E6962626C653D9F
:1037B00025690D0A000000004374726C2053657186
:1037C0000D0A0000000000000000F87F30313233A5
:1037D0003435363738396162636465663031323387
:1037E00034353637383941424344454621000000DC
:1037F0002200000000000000000000000000244043
:103800000000000000005940000000000088C34094
:103810000000000084D797410080E03779C341431E
:10382000176E05B5B5B89346F5F93FE9034F384D26
:10383000321D30F94877825A3CBF737FDD4F1575D2
:103840002D494E46000000002D696E660000000004
:103850002B494E46000000002B696E6600000000F8
:103860004E414E006E616E00286E756C6C29000032
:1038700001000000000000000A000000000000003D
:103880006400000000000000E803000000000000E9
:103890001027000000000000A086010000000000CA
:1038A00040420F00000000008096980000000000D9
:1038B00000E1F5050000000000CA9A3B000000008E
:1038C00000E40B540200000000E8764817000000F6
:1038D0000010A5D4E800000000A0724E18090000F6
:1038E00000407A10F35A00000080C6A47E8D0300C9
:1038F0000000C16FF286230000008A5D78456301F5
:10390000000064A7B3B6E00D0000E8890423C78A6D
:1039100000A24A04000000000000000001020304AD
:1039200006070809640000004841505059204348E8
:10393000494E455345202000204E455720594541CA
:0839400052202121202020006B
:0400000508000131BD
:00000001FF
