:020000040800F2
:10000000004E002031010008590100085105000888
:1000100000000000000000000000000000000000E0
:100020000000000000000000000000005D0100086A
:1000300000000000000000005F010008A1080008A7
:100040006501000867010008690100086B010008EC
:100050006D0100086F01000889050008950500087A
:10006000A1050008AD050008B90500087B010008DE
:100070007D0100087F01000881010008830100085C
:100080008501000887010008890100088B0100082C
:100090008D0100088F01000891010008C5050008C6
:1000A000950100080D0F0008990100089B01000848
:1000B0003D0F00086D0F00089D0F0008191E000875
:1000C000A5010008811F0008A9010008AB01000874
:1000D000AD010008F50B0008290C0008590C0008B8
:1000E000F5050008B7010008B9010008BB010008C8
:1000F000BD010008BF010008C1010008C3010008DC
:10010000C5010008C7010008C9010008CB010008AB
:10011000CD010008CF010008D1010008D30100087B
:10012000D5010008D7010008D9010008DB0100084B
:10013000054820F0070085460448804704480549E3
:10014000016000F04BB800000050002035030008AB
:1001500008ED00E000000008FEE7FEE7FEE7FEE72E
:10016000FEE7FEE7FEE7FEE7FEE7FEE7FEE7FEE767
:10017000FEE7FEE7FEE7FEE7FEE7FEE7FEE7FEE757
:10018000FEE7FEE7FEE7FEE7FEE7FEE7FEE7FEE747
:10019000FEE7FEE7FEE7FEE7FEE7FEE7FEE7FEE737
:1001A000FEE7FEE7FEE7FEE7FEE7FEE7FEE7FEE727
:1001B000FEE7FEE7FEE7FEE7FEE7FEE7FEE7FEE717
:1001C000FEE7FEE7FEE7FEE7FEE7FEE7FEE7FEE707
:1001D000FEE7FEE7FEE7FEE7FEE7FEE735493648C5
:1001E0000A1A02D0072291438D46344934480A1A2C
:1001F00006D00722914381F30988022282F31488F2
:1002000030483149314A00F043F831483149324AE7
:1002100000F03EF831483249324A00F039F83248AD
:100220003249334A00F034F832483349334A00F057
:100230002FF833483349344A00F02AF83348344918
:10024000344A00F025F834483449002200F02BF8F5
:1002500033483449002200F026F833483349091A5C
:10026000082903DB00220260043001601F48204996
:10027000884205D00268043003B4904703BCF7E716
:1002800000208646EC4600200021294A9047FEE7E0
:10029000884207D0521A05D0037801300B70013123
:1002A000013AF9D17047884202D002700130FAE772
:1002B00070470000004E0020004C0020005000203D
:1002C000004E002094320008000000201C00002096
:1002D0003403000834030008383200089432000860
:1002E00000000020000000203832000838320008EA
:1002F0003832000838320008383200083832000836
:10030000383200083832000894320008B032000851
:100310001C0000201C0000201C0000209C09002064
:100320009C090020A0090020A0090020A00A0020AC
:040330003D0600087E
:1003340030B400244FF41F053B4B3C49186882B08D
:1003440040F00100186058681A4601405960196865
:1003540021F0847121F480311960196821F480211D
:100364001960596821F4FE0159609D60009401945C
:10037400196841F48031196003E0009BB3F5A06F64
:1003840009D0136803F400330193009B01330093F5
:10039400019B002BF1D0244B1B6813F4003318BFCE
:1003A40001230193019B012B06D04FF00062204BE7
:1003B4009A6002B030BC70471E491B4B08681A464D
:1003C40040F010000860086820F003000860086826
:1003D40040F00200086059685960596841F40051BE
:1003E4005960596841F480615960596821F47C115D
:1003F4005960596841F4E8115960196841F08071F5
:10040400196013689B01FCD55368074923F0030363
:100414005360536843F0020353604B6803F00C03CA
:10042400082BFAD1C1E700BF001002400000FFF81A
:1004340000ED00E000200240114A536803F00C0371
:10044400082B0ED153685168C3F38343C90303F1E6
:10045400020311D5526892030ED40A4A02FB03F335
:1004640000E0084B064A084852680849C2F30312E0
:10047400825CD3400B607047054A02FB03F3F1E74B
:100484000010024000127A0000000020100000203A
:1004940000093D002649274BC869274A40F0070058
:1004A400C861886940F4036040F00D0088611868F1
:1004B40020F440001860186840F440101860C869BF
:1004C40040F40030C861186840F44070186018683F
:1004D40020F480601860186840F4006018601868A0
:1004E40020F440501860186840F480401860186880
:1004F40020F400401860CB6943F48003CB61536857
:1005040043F440735360536843F480635360536807
:1005140043F400635360536843F440535360536897
:1005240043F480435360536843F40043536070477B
:100534000010024000080140000C014008B5FFF71C
:100544007BFFBDE80840FFF7A5BF00BFBFF34F8F97
:100554000549064BCA6802F4E0621343CB60BFF35B
:100564004F8F00BFFDE700BF00ED00E00400FA0577
:100574004FF400014FF48072014B19605A607047C8
:1005840000E100E0014B5B69704700BF00040140DB
:10059400014B5B69704700BF00040140014B5B697C
:1005A400704700BF00040140014B5B69704700BF06
:1005B40000040140014B5B69704700BF0004014027
:1005C4000A4B10B55C69E20509D4A30506D54FF4BE
:1005D4000072064B20465A61AFF3008010BD4FF401
:1005E400807220465A61AFF30080EEE700040140B8
:1005F4000A4B10B55C69620509D4230506D54FF48E
:100604000062064B20465A61AFF3008010BD4FF4E0
:10061400806220465A61AFF30080EEE70004014097
:100624000122014B1A607047C00800200122014BCF
:100634001A607047BC0800202DE9F04F122289B0DF
:1006440000217B4802F0C2FDFFF778FF794B7A4A1C
:100654001B68A2FB03239B09013BB3F1807F09D2F2
:10066400F02500200721754A754C536084F8235007
:1006740090601160734A0121734801F04FFB42F20C
:1006840010720121714800F0B3FBD0244FF4806252
:100694006F4B7048704983F826434FF4E12303926B
:1006A40001920290009101226C496D4800F0EAFA2F
:1006B4000C23072204216A4800F010FB694A6A49A6
:1006C400674800F005FBFFF753FF642342F2107202
:1006D4005E495D4801F04CF8C82000F075FC002725
:1006E400DFF89891DFF8B081604E614D614CDFF81E
:1006F40070B1D8F80030002B48D1336873B10023AF
:1007040087F0010A33605C4A2023002F45D113612E
:100714005A4801F03DFA002845D057462B68002B73
:10072400E7D00423302200216370554B22701868EF
:10073400296001F07BFD0022524B02F011F901F017
:100744004DFD514BC4F80200186801F06FFD002202
:100754004C4B02F005F901F041FD4C4BC4F8060086
:10076400186801F063FD0022464B02F0F9F801F02D
:1007740035FD3123C4F80A0012223E4958466374F9
:1007840000F0B2FAD8F80030002BB6D00023584657
:10079400C8F8003001F0A6FCAFE75361374801F018
:1007A400F7F90028B9D1B9F9000001F0D5FC3849AE
:1007B40001F0F4FD0790B9F80A00574600F247101B
:1007C40000B201F0C9FC334901F0E8FD0690B9F824
:1007D400080000F50D7000B201F0BEFC2D4901F0D7
:1007E400DDFD0590B9F80600693800B201F0B4FCEB
:1007F400284901F0D3FD8246B9F9040001F0ACFCAC
:10080400234901F0CBFD0190B9F9020001F0A4FCE9
:100814001F4901F0C3FD069A009005995046079BB5
:1008240000F0F8FB194A1649174800F00BFF75E76A
:100834005000002010000020D34D621010E000E0B2
:1008440000ED00E0801A06001C000020B00000202B
:1008540000E100E0BC000020BC0400204832000895
:10086400780000203106000825060008C40800208E
:10087400C808002064000020000801403C0000205B
:10088400CC08002000005940D0080020D4080020E3
:1008940040DA7F38295C0F3CBC0800200D4B1A68F5
:1008A40022B11A68013A1A601A686AB10A4B1A68C6
:1008B4004AB11A68013A1A601A6822B9052001215E
:1008C400064A18601160704764200121044A1860C8
:1008D4001160EBE71800002014000020C408002079
:1008E400C808002001292DE9F84367D021D3022943
:1008F4001BD12724414980260D46414BC4608160A9
:1009040098608B899BB243F400538B813D4B5B68A9
:10091400DB0A58076BD53C483C4903F0030350F805
:1009240023300C68B4FBF3F416E06FF00100BDE86B
:10093400F8832524364D324B85601860AB893149E4
:100944009BB243F40053C460AB814B681B0A590744
:1009540042D420262D4B1C682046170101F014FCBC
:1009640080463846894601F027FC02460B4640463D
:10097400494602F0ABF8B4FBF7F4804620468946BA
:1009840001F002FC02460B464046494601F0A2FE35
:100994000022204B01F0E4FF01F020FC0E2829DCAA
:1009A40040EA041080B22881AB891B4A9BB243F011
:1009B4002C03AB8100205660BDE8F8832624174938
:1009C4000F4BC460816058608B890D469BB243F421
:1009D40000538B81402699E70B480C4903F003032D
:1009E40050F823300C682026B4FBF3F4B4E7074B2B
:1009F4001C68B1E72401A4B22C81D5E7004800406B
:100A0400D8080020001002403832000810000020EE
:100A1400003801400000304000E100E000440040A4
:100A2400114A0B01116830B4B1FBF3F10124C2681F
:100A3400856842F3C40323F0604323F0030302F008
:100A44001F02090103F16043944003F5614389B235
:100A5400C3F880402981AA89002092B242F00C0296
:100A6400AA811C6030BC70471000002010B4846858
:100A74000429A08920F480604FEA00404FEA104026
:100A8400A081208A20F450504FEA00404FEA1040E1
:100A9400208210D005290AD1A189082A89B241F4FB
:100AA4008051A18111D0092A2CD0072A13D06FF0CC
:100AB400020010BC7047A189082A21F480514FEA32
:100AC40001414FEA1141A181EDD1A28992B242F4D0
:100AD400C062A28105E0A28922F480621204120C91
:100AE400A281228A0C2B22F440524FEA02424FEA9E
:100AF4001242228203D00E2B10D0002BD7D100201B
:100B040010BC7047A28992B242F48062A281A28989
:100B140022F400721204120CA281E2E7238A00205C
:100B24009BB243F40053238210BC7047C26853B293
:100B3400002B08DB090103F16043C9B203F56143EB
:100B440083F800137047044B02F00F020901C9B285
:100B540013441976704700BFFCEC00E00020704796
:100B64008268918093899BB243F08003938170479C
:100B740083689888C0B270478368988980F0800041
:100B8400C0F3C010704700BF8368188800F0C0002D
:100B9400003018BF0120704783681888C0F34010E4
:100BA400704700BF8268938923F0C0031B041B0CA9
:100BB400938170470121C268054853B25B0902F072
:100BC4001F02203301FA02F240F82320704700BFCD
:100BD40000E100E00121C36804485AB203F01F0396
:100BE400520901FA03F340F82230704700E100E0B3
:100BF4000A4B10B51C88A4B2630609D414F0280F5C
:100C040000D110BD064BBDE81040186800F0CEB806
:100C1400034B186800F0A8F8F0E700BF0038014063
:100C2400D8080020094B10B51C88A4B2620608D469
:100C3400A30600D410BD064BBDE81040586800F070
:100C4400B5B8034B586800F08FF8F1E70044004052
:100C5400D8080020094B10B51C88A4B2620608D439
:100C6400A30600D410BD064BBDE81040986800F000
:100C74009DB8034B986800F077F8F1E7004800400E
:100C8400D80800202DE9F04F04460D461F461646AD
:100C940081B038220021DDF828A0DDF82CB0DDF881
:100CA4003080DDF8349002F091FA25602D683A46E0
:100CB400314620462B46C4F810B0C4F81CA0C4F832
:100CC4002090C4F82C8001B0BDE8F04F184700BF55
:100CD40001B1016302B14263704700BF10B40468FC
:100CE400A468A44610BC6047002A13DD70B504460E
:100CF4000D468E18236820461B6A98470028F9D0B1
:100D0400236815F8011B5B6920469847AE42F1D170
:100D1400002070BD0020704738B504460368DB6AC4
:100D24009847626AA36A9A420ED0A36AE06A5A1C80
:100D3400A262A16A226AC55C91420CD02368204653
:100D44001B6B9847284638BD0025236820461B6B3B
:100D54009847284638BD0023A362EFE7426A806AB9
:100D6400101A18BF012070474169826910B5914279
:100D740003460ED08269C169501C98619C69186948
:100D8400895C84420ED0BDE810401A681846526946
:100D94001047044603689B6A9847236B2BB1BDE850
:100DA4001040184700229A61EDE710BD70B5044663
:100DB40003689B699847656AA16A636A226A01337A
:100DC4009342A8BF0023A26A9A420CD0626AE66AE0
:100DD4008D42B054636200D070BD636B002BFBD0B6
:100DE400BDE870401847636843F00103636070BD59
:100DF4000139F0B4032970D8DFE801F04902534EF9
:100E04004FF080551C264FF08044354F80E8500049
:100E140047F821002188334821F45E710904090C44
:100E24002180416801F4E061B1F5A06F4FD03DD855
:100E3400002945D0B1F5806F02D12B4B1B685B08AC
:100E4400B3FBF2F24FF6FE70824244D900218B1CB0
:100E5400B2FBF3F3834201F10101F8D809B189B27D
:100E6400218500209BB2A385A38A204A9BB243F02C
:100E74000103A38223889BB243F081032380A389C7
:100E84009BB243F00103A3811560F0BC70474FF09F
:100E940000751926164CB8E74FF080451E26154CF0
:100EA400B3E74FF000551D26134CAEE7B1F5C06F04
:100EB40009D0B1F5E06FC3D10B4B1B681B09BFE729
:100EC400094B1B68BCE7084B1B68DB08B8E7064BFB
:100ED4001B689B08B4E71346C3E74FF0FF30D4E721
:100EE400E4080020001002401000002000E100E0AF
:100EF400002C01400008004000040040836881E8A1
:100F04000C008160704700BF0A4B19680A68138A95
:100F1400DB070ED5138A10B523F001038C681B047C
:100F24001B0C138224B1236898476468002CFAD1FF
:100F340010BD7047E40800200A4B59680A68138AF8
:100F4400DB070ED5138A10B523F001038C681B044C
:100F54001B0C138224B1236898476468002CFAD1CF
:100F640010BD7047E40800200A4B99680A68138A88
:100F7400DB070ED5138A10B523F001038C681B041C
:100F84001B0C138224B1236898476468002CFAD19F
:100F940010BD7047E40800200A4BD9680A68138A18
:100FA400DB070ED5138A10B523F001038C681B04EC
:100FB4001B0C138224B1236898476468002CFAD16F
:100FC40010BD7047E4080020F8B54FF07C570023AB
:100FD4004FF07E54094A0A4917600A4E0A4A0B4DDB
:100FE4000B602B601360346001F0B6F801462046B4
:100FF40001F03EFA064B1860F8BD00BFF40800206B
:1010040004090020FC080020080900200009002031
:10101400F80800202DE9F04F0D4693B0A949144675
:10102400984601F0BBF9A7490646284601F0B6F9EF
:10103400A4490746204601F0B1F9A34B81461D6837
:10104400A24B314605F100401C6801F0A7F9214686
:101054008246384601F0A2F99D4B01465046D3F82A
:1010640000B001F003F959468246484601F096F96A
:101074000146504601F0FAF84FF07C5101F08EF928
:10108400944B02901B6830461946009301F086F990
:1010940021468246484601F081F90146504601F056
:1010A400E7F859468246384601F078F90146504639
:1010B40001F0DCF84FF07C5101F070F900990390D5
:1010C400384601F06BF929468246484601F066F934
:1010D4000146504601F0CAF859468246304601F0AE
:1010E4005DF90146504601F0C3F84FF07C5101F020
:1010F40055F900990490484601F050F92946814673
:10110400384601F04BF90146484601F0B1F8214652
:101114000746304601F042F90146384601F0A6F888
:101124004FF07C5101F03AF900210590404601F05E
:101134008FFA30B100211C9801F08AFA002840F09F
:101144006A824146404601F029F91C990646084640
:1011540001F024F90146304601F08AF81D9906464B
:10116400084601F01BF90146304601F081F85A4B5C
:101174004FF07C51A3EB6006119301F00FF9314657
:10118400074601F00BF9314601F008F901464FF02A
:101194007F5001F06BF8314601F000F90646014634
:1011A400384601F0FBF8314601F0F8F801464FF0FB
:1011B4007F5001F05BF8314601F0F0F80646014635
:1011C400404601F0EBF8314601901C9801F0E6F836
:1011D400314681461D9801F0E1F8009E08903146A1
:1011E400304601F045F829460990284601F040F8B8
:1011F40021460A90204601F03BF859460B90584688
:1012040001F036F84FF081410C903046009601F021
:10121400C5F84FF081418246284601F0BFF84FF0EF
:1012240081418046204601F0B9F84FF08241069092
:10123400284601F0B3F84FF082410D90204601F0AA
:10124400ADF829460E90284601F0A8F82146074635
:10125400204601F0A3F859460646584601F09EF888
:1012640031460F90504601F099F80B990790019878
:1012740001F094F8079A0146104600F0F9FF394648
:101284000790504601F08AF8079A0146104600F08C
:10129400EFFF0A998246484601F080F8014650461D
:1012A40000F0E4FF009B07901946184601F076F819
:1012B4004FF0814101F072F80F991090404601F00F
:1012C4006DF80BE039FA8E3C000900200409002077
:1012D40008090020FC080020DF59375F0C9982467A
:1012E400019801F05BF80146504600F0BFFF1099E9
:1012F4008246284601F052F80146504600F0B8FFF5
:1013040009998246484601F049F80146504600F0E2
:10131400ADFF414600F0AAFF394682460D9801F020
:101324003DF80146504600F0A3FF314682460D9831
:1013340001F034F80146504600F09AFF41468246D7
:10134400089801F02BF80146504600F091FF1099DF
:101354008246204601F022F809998046019801F05E
:101364001DF80146404600F083FF0F998046069819
:1013740001F014F80146404600F07AFF0C998046CB
:10138400484601F00BF80146404600F06FFF06990D
:1013940000F06CFF394680460E9800F0FFFF0146CE
:1013A400404600F065FF314680460E9800F0F6FF97
:1013B4000146404600F05CFF06998046089800F01C
:1013C400EDFF0146404600F053FF4FF08141804657
:1013D400384600F0E3FF594600F0E0FF0A9907465B
:1013E400019800F0DBFF0146384600F03FFF4FF064
:1013F40081410746304600F0D1FF594600F0CEFF48
:101404000146384600F034FF0B990646484600F082
:10141400C5FF0146304600F029FF079B8146194667
:10142400184600F0BBFF51460646504600F0B6FF92
:101434000146304600F01CFF41460646404600F097
:10144400ADFF0146304600F013FF494606464846C4
:1014540000F0A4FF0146304600F00AFF119B4FF054
:101464007C51A3EB600600F099FF3146074600F07B
:1014740095FF314600F092FF01464FF07F5000F097
:10148400F5FE314600F08AFF06460146384600F074
:1014940085FF314600F082FF01464FF07F5000F097
:1014A400E5FE314600F07AFF07465F4A0798166862
:1014B400394600F073FF314600F070FF0146029890
:1014C40000F0D4FE39460290504600F067FF3146E2
:1014D40000F064FF0146039800F0C8FE394603900B
:1014E400404600F05BFF314600F058FF0146049887
:1014F40000F0BCFE39460490484600F04FFF3146E8
:1015040000F04CFF0146059800F0B0FE0590474BF3
:1015140002981E68314600F041FF009900F0A8FED1
:1015240031460746039800F039FF294600F0A0FE33
:1015340031460546049800F031FF214600F098FE3C
:1015440031460446059800F029FF594600F090FE04
:1015540039468046384600F021FF2946064628468B
:1015640000F01CFF0146304600F082FE214606468C
:10157400204600F013FF0146304600F079FE414654
:101584000646404600F00AFF0146304600F070FE71
:1015940006464FF07C5100F001FF254B8146A3EB3A
:1015A4006606314600F0FAFE314600F0F7FE0146C9
:1015B4004FF07F5000F05AFE314600F0EFFE064631
:1015C4000146484600F0EAFE314600F0E7FE0146D7
:1015D4004FF07F5000F04AFE314600F0DFFE064631
:1015E4000146384600F0DAFE124B314618602846B0
:1015F40000F0D4FE104B31461860204600F0CEFEB9
:101604000E4B31461860404600F0C8FE0C4B186083
:1016140013B0BDE8F08F00211D9801F019F80028DF
:101624003FF48FAD73E700BFF4080020F8080020F2
:10163400DF59375FFC08002000090020040900205E
:10164400080900202DE9F04F3C4F83B0D7F80090F3
:1016540001908B4648464946924600F09FFE01465B
:101664004FF07C5000F002FE354E0446D6F8008060
:10167400344D4146404600F091FE0146204600F0BC
:10168400F5FD29680090484600F088FE2E4C8146FE
:101694002168404600F082FE0146484600F0E8FD1D
:1016A400009A114601F0D2FB284900F077FE019B15
:1016B40021681860386800F071FE31688046286837
:1016C40000F06CFE0146404600F0D0FD4FF0404172
:1016D40000F064FE01F078FC1C4900F05FFE3668FF
:1016E400CBF800003146304600F058FE01464FF07A
:1016F4007C5000F0BBFD246880462146204600F063
:101704004DFE0146404600F0B1FD39688046304642
:1017140000F044FE29680646204600F03FFE0146DC
:10172400304600F0A5FD414601F090FB074900F06A
:1017340035FECAF8000003B0BDE8F08F00090020B0
:1017440004090020FC08002008090020E12E65425D
:101754000122014B1A60704754090020034B1A6898
:1017640012B11A68013A1A60704700BF600900207C
:101774002DE9F043814603FB02F3994ADC1782FB0F
:101784000323984E984DC4EBA3138DB00846974A93
:10179400974933602B60FFF7B1FB4846954A964959
:1017A40000F032FB00240123944FDFF858820093A9
:1017B40048463B463C700F22D621C8F8009000F002
:1017C4000DFB33688E4C2B6003E02B68002B00F07C
:1017D400D4812368002BF8D00021DFF82C92804AB2
:1017E400D9F80030216003EB8303A2FB03239B0998
:1017F4000293029B5A1E02922BB100BF029B5A1EF7
:101804000292002BF9D101234FF0500E0093D8F827
:1018140000007A4B1022D62187F800E000F0C4FAC9
:1018240033682B6003E02B68002B00F0A68123684B
:10183400002BF8D00022D9F80030694903EB830368
:10184400A1FB03139B0922600393039B5A1E03927B
:101854002BB100BF039B5A1E0392002BF9D1012325
:101864004FF0500E0093D8F80000644B1122D6219B
:1018740087F800E000F098FA33682B6003E02B68E7
:10188400002B00F07A812368002BF8D00022D9F8CD
:101894000030534903EB8303A1FB03139B0922602C
:1018A4000493049B5A1E04922BB100BF049B5A1E3E
:1018B4000492002BF9D101234FF0040E0093D8F8C1
:1018C40000004E4B1222D62187F800E000F06CFA9B
:1018D40033682B6003E02B68002B00F04E812368F3
:1018E400002BF8D00022D9F800303D4903EB8303E4
:1018F400A1FB03139B0922600593059B5A1E0592C5
:101904002BB100BF059B5A1E0592002BF9D1012370
:101914004FF0800E0093D8F80000384B1322D621E4
:1019240087F800E000F040FA33682B6003E02B688E
:10193400002B00F022812368002BF8D00022D9F874
:101944000030274903EB8303A1FB03139B092260A7
:101954000693069B5A1E06922BB100BF069B5A1E85
:101964000692002BF9D101234FF06E0E0093D8F8A4
:101974000000224B0A22D62187F800E000F014FA76
:1019840033682B6003E02B68002B00F0F68023689B
:10199400002BF8D00022D9F80030114903EB83035F
:1019A400A1FB03139B0922600793079B5A1E07920E
:1019B4002BB100BF079B5A1E0792002BF9D10123BC
:1019C4004FF0740E0093D8F800000C4B20223C21F9
:1019D40087F800E000F0E8F933682B601AE000BFF4
:1019E400D34D6210640900206009002061170008CB
:1019F40058090020551700080C090020140900207C
:101A04005409002068090020100000202B68002BD6
:101A140000F0B3802368002BF8D00022D9F80030FE
:101A2400594903EB8303A1FB03139B092260089329
:101A3400089B5A1E08922BB100BF089B5A1E08929D
:101A4400002BF9D101234FF00C0E0093D8F80000BD
:101A54004E4B23223C2187F800E000F0A5F93368BF
:101A64002B6003E02B68002B00F087802368002B99
:101A7400F8D00022D9F80030434903EB8303A1FBDB
:101A840003139B0922600993099B5A1E09922BB1E7
:101A940000BF099B5A1E0992002BF9D101234FF074
:101AA400400E0093D8F80000384B24223C2187F8DC
:101AB40000E000F079F933682B6002E02B68002B1A
:101AC4005BD02368002BF9D00022D9F800302E49CE
:101AD40003EB8303A1FB03139B0922600A930A9B74
:101AE4005A1E0A922BB100BF0A9B5A1E0A92002B5F
:101AF400F9D101234FF0000E0093D8F80000234BD6
:101B040021223C2187F800E000F04EF933682B6075
:101B140002E02B68002B30D02368002BF9D0002280
:101B2400D9F80030184903EB8303A1FB03139B0985
:101B340022600B930B9B5A1E0B922BB100BF0B9B85
:101B44005A1E0B92002BF9D1012300210093D8F8DF
:101B540000000E4B397022223C2100F025F9336835
:101B64002B6001E02B6843B12368002BFAD00023DB
:101B7400184623600DB0BDE8F0836FF001002360C8
:101B84000DB0BDE8F08300BFD34D621014090020EE
:101B9400002101222DE9F043DFF87C815A4ED8F868
:101BA40000305A4C83B05A4F009221603170814604
:101BB4001E221846D621334600F010F9554D3B68D5
:101BC4002B6001E02B686BB32368002BFAD04FF035
:101BD400000E3378C4F800E003F00303032B52D063
:101BE40001234FF0000E0093D8F80000464B272243
:101BF4003C21C4F800E086F800E000F0EFF83B6810
:101C04002B6001E02B686BB12368002BFAD04FF0F6
:101C1400000E3078C4F800E010F0080008D103B0DA
:101C2400BDE8F0836FF00100236003B0BDE8F083EA
:101C34000623D8F8000000932822334B3C21C4F833
:101C440000E086F800E000F0C9F83B682B6002E091
:101C54002B68002B54D02368002BF9D00020727815
:101C64003378206043EA0223A9F80C30F278B37881
:101C740043EA0223A9F80E307279337943EA022346
:101C8400A9F81030CBE70C23D8F8000000932222E7
:101C94001D4BD621C4F800E086F800E000F09EF861
:101CA4003B682B6002E02B68002BBBD02368002B21
:101CB400F9D0002172783378216043EA0223A9F82D
:101CC4000630F278B37843EA0223A9F8083072792F
:101CD400337943EA0223A9F80A30F279B37943EA63
:101CE4000223A9F80030727A337A43EA0223A9F86E
:101CF4000230F27AB37A43EA0223A9F804306FE798
:101D04006FF0010023608AE71409002054090020C1
:101D140064090020600900206809002070B40029CB
:101D240036D0012930D102241B4B0026027E1B4DE4
:101D34006FF30002066103604661027645F82100F4
:101D44001E801A88164D22F001021204120C1A8009
:101D54009A88304622F03F021204120C9A809A8824
:101D640092B242F024029A809A8B92B242F4404298
:101D740042F004029A831A8892B242F001021A8055
:101D840045F8214070BC70474FF0FF3070BC70477D
:101D94004FF00044034BC8E7005800406C09002092
:101DA40000E100E00054004030B49DF8085004689D
:101DB4000171057342712289836092B242EA410142
:101DC400218123889BB243F480732380A3889BB230
:101DD40043F40073A38030BC704700BF30B49DF857
:101DE4000850046841F001010573427101712288B1
:101DF400836092B242F4A0622280A3889BB243F42F
:101E04000073A38030BC7047C36981E80C00C161D2
:101E1400704700BF38B5574A574B1C68938A118BDB
:101E24009BB2DD070AD5237ED8074CD4237903F06F
:101E3400FE03138200232361636138BD190611D5A3
:101E44009B0754D42379DD0754D56369002B39D11A
:101E54001388217E9BB243F4807341F00101217603
:101E6400138038BD980737D5217B01297AD05B06CA
:101E740028D54049A2680B8A501CDBB2A0601370BD
:101E84006269237B0132626160695A1E904251D0BB
:101E940062699A4210DB3749E5698A8822F4007244
:101EA4001204120C8A802DB12B6898476D68002D9E
:101EB400FAD1237B00226261022B03D96269023BBF
:101EC4009A4242D038BD6FF3000323760023217970
:101ED40011822361636138BD5906F3D5237B012B3D
:101EE400C7D113889BB243F400731380C1E76379AD
:101EF400138238BDA368591CA1601B78138223691F
:101F0400217B0133236123698B42DBDB1388E46982
:101F14009BB243F400731380938823F400731B046F
:101F24001B0C9380002CCDD0236898476468002C48
:101F3400FAD138BD0B8AA268DBB2511CA1601370C0
:101F44006269237B01326261A2E70A4A138823F49F
:101F540080631B041B0C138013889BB243F400732F
:101F6400138038BD138823F480631B041B0C138077
:101F740038BD00BF005400406C09002038B5574AF2
:101F8400574B5C68938A118B9BB2DD070AD5237E7D
:101F9400D8074CD4237903F0FE0313820023236172
:101FA400636138BD190611D59B0754D42379DD0725
:101FB40054D56369002B39D11388217E9BB243F435
:101FC400807341F001012176138038BD980737D51D
:101FD400217B01297AD05B0628D54049A2680B8A67
:101FE400501CDBB2A06013706269237B0132626112
:101FF40060695A1E904251D062699A4210DB374997
:10200400E5698A8822F400721204120C8A802DB1C8
:102014002B6898476D68002DFAD1237B00226261FA
:10202400022B03D96269023B9A4242D038BD6FF356
:10203400000323760023217911822361636138BD73
:102044005906F3D5237B012BC7D113889BB243F4E4
:1020540000731380C1E76379138238BDA368591CE8
:10206400A1601B7813822369217B013323612369D7
:102074008B42DBDB1388E4699BB243F40073138067
:10208400938823F400731B041B0C9380002CCDD085
:10209400236898476468002CFAD138BD0B8AA2687B
:1020A400DBB2511CA16013706269237B013262614F
:1020B400A2E70A4A138823F480631B041B0C1380D1
:1020C40013889BB243F40073138038BD138823F440
:1020D40080631B041B0C138038BD00BF00580040F4
:1020E4006C0900202DE9F8434FF0000806464746E6
:1020F400164C04F108093046FEF730FE0128054667
:102104000FD13046FEF708FE2368012B0CD030288F
:10211400F1D1304684E8A000FEF720FE01280546F0
:10212400EFD04046BDE8F88363680A2B03F101024F
:10213400234405D00A2A88BF3A4618726260DAE757
:10214400312808BFC84627606760D4E774090020B7
:1021540000487047940900209D22002808BF70475A
:1021640044BF404242F48072B0FA80F18840521A6F
:1021740041064FEA102008BF10F0010F00EBC250D7
:1021840088BF0130704700BF004204BF014670475A
:1021940010F000424FEA125242F4806242F01D02F3
:1021A40000D54042B0FA80F18840521AC30A400573
:1021B40003EB0251704700BF004204BF0146704761
:1021C4004FF4806242F01D02B0FA80F18840521A46
:1021D400C30A400503EB0251704700BF4B005A0D80
:1021E400A2F54072FF3A0FD4D2F11F020EDD11EABC
:1021F400410F4FEAC12141EA505040F0004020FA1B
:1022040002F028BF4042704700207047004218BFC8
:1022140043F0010313F5001F88BF21F0004111F0C2
:10222400004058BF6FF00040704700BFC0F3C75173
:10223400094208BF00F0004042004FEA40704FEAF4
:10224400121118BF01F1605128BF81F000414FF015
:102254008073D34238BF704701F1605118BF41F415
:102264000021704780F0004081F0004181F000417E
:102274004FF07F4C90EA010F3DD4431A3CBFC01A83
:10228400C918BCEB400F7FD91CEA400F30D0C20DF7
:10229400B2EBD153182BC8BF7047000240F0004086
:1022A4001CEB410F4FEA41214FEA310138BF01F0E5
:1022B4000041C3F1200C01FA0CFCD940401832BF94
:1022C400013A5FEA300040F001005CEA406C04BF70
:1022D40010F4807F20F08000000A40EBC2504FF0E1
:1022E400807111EB400F38BF7047C00DC0057047B7
:1022F40000F00040704781F00041431A3EBF83F074
:102304000043C01AC918BCEB400F3AD9C20DA2EB66
:10231400D1531CEB400F4FEA40204FEA300038BF46
:1023240000F000401CEB410F4FEA41214FEA31011C
:1023340038BF01F00041C3F1200C11FA0CFC21FA62
:1023440003F118BF41F00101401A08BF70474FEA7A
:102354001223D2B2B0FA80F18840521AC1B2000AF4
:1023640020F4000040EAC25040EAC370802940F1E2
:10237400000008BF20F00100002AC8BF7047D8073A
:102384007047BCEB410F03D0BCEB400F08BF704754
:102394004FF0FE4040F44000704700BF4FF0FF0C88
:1023A4001CEAD0521EBF1CEAD153FF2AFF2B2AD0AD
:1023B40090EA010F4FF0004C4CEA01214CEA002056
:1023C400A0FB01C11A444CBF4FF000430023B1F1FC
:1023D400004F62F17F0238BF49004CEA416CFE2A8B
:1023E40009D253EA11204CEAC07C28BFBCF1010396
:1023F40040EBC2507047124244BF18467047FF205A
:1024040043EAC050704710EACC5F08BF00F00040B8
:1024140011EACC5F08BF01F000410CEAD153FF2A56
:1024240018BFFF2B03D0484000F00040704700283D
:102434001EBFB0F1004F0029B1F1004F12D0FF2AA6
:1024440002D15FEA402C0DD1FF2B02D15FEA412C6F
:1024540008D180EA010000F0004040F0FE4040F462
:10246400000070474FF0FE4040F44000704700BF4A
:10247400FF2313EAD0521EBF13EAD15392F0FF0F89
:1024840093F0FF0F00F0B580D21A02F17F0281EAC7
:10249400000C0CF0004C4FF0004343EA002043EAE8
:1024A40001214FEADC5C4FEA50034FEA51015B1A09
:1024B4003CBF013A01EB4303D1EB430338BFCB18D4
:1024C4004CEB0C0CD1EB430338BFCB184CEB0C0C8E
:1024D400D1EB430338BFCB184CEB0C0CD1EB4303CB
:1024E40038BFCB184CEB0C0CD1EB430338BFCB18E3
:1024F4004CEB0C0CD1EB430338BFCB184CEB0C0C5E
:10250400D1EB430338BFCB184CEB0C0CD1EB43039A
:1025140038BFCB184CEB0C0CD1EB430338BFCB18B2
:102524004CEB0C0CD1EB430338BFCB184CEB0C0C2D
:10253400D1EB430338BFCB184CEB0C0CD1EB43036A
:1025440038BFCB184CEB0C0CD1EB430338BFCB1882
:102554004CEB0C0CD1EB430338BFCB184CEB0C0CFD
:10256400D1EB430338BFCB184CEB0C0CD1EB43033A
:1025740038BFCB184CEB0C0CD1EB430338BFCB1852
:102584004CEB0C0CD1EB430338BFCB184CEB0C0CCD
:10259400D1EB430338BFCB184CEB0C0CD1EB43030A
:1025A40038BFCB184CEB0C0CD1EB430338BFCB1822
:1025B4004CEB0C0CD1EB430338BFCB184CEB0C0C9D
:1025C400D1EB430338BFCB184CEB0C0CC91A8B422C
:1025D4005CEBC250002A09DDFF2A38BF70474FF078
:1025E4007F400CF0004C4CEA500070470CF0004067
:1025F400704703EAD15393F0FF0F08D192F0FF0F15
:102604001BD05FEA412C14D04FF440001DE092F03F
:10261400FF0F05D14FF07F43B3EB400F10D00CD127
:1026240093F0000F08BF92F0000F06D093F0000F54
:1026340006D0484000F0004070474FF4400004E0EA
:10264400484000F0004040F4000040F0FE40704775
:1026540050EA0102520007D0884203D1400010F131
:10266400807F01D9002070470120704742004B0051
:1026740012F1807F94BF13F1807F0CE050EA0102D5
:10268400520008D003D288428041404270478142C0
:102694008041404270470020704700BF42004B0019
:1026A40012F1807F94BF13F1807F0CE050EA0102A5
:1026B400520008D003D28142804140427047884290
:1026C4008041404270470020704700BF81F00041C4
:1026D40083F0004383F00043F0B491EA030F00F168
:1026E4008E80841A71EB030603D212197341001B06
:1026F400B1414FF07F4646F4600616EA410F08BF29
:1027040062E0B6EB410F98BF69E04FEA1154A4EBC5
:102714001357B14341F4801116EA430F07BF002356
:102724000022B34343F48013D7F1200634D303FAD1
:1027340006F5401941F1000122FA07F5401923FA80
:1027440007F541EB050102FA06F211F4001F19D155
:1027540021F4801101EB0451F0BCB2F1004F08BF29
:1027640010EA500F50F1000041F100014FF07F4397
:1027740043F46003B3EB410F88BF7047090D0905AB
:102784000020704749085FEA30005FEA320228BF40
:1027940042F001020134DBE7203F402F19D223FA33
:1027A40007F5401941F10001C7F12006124218BF94
:1027B400012203FA06F52A43C7E711EA560F04BFBC
:1027C40000200021F0BC704701F000410020F0BC63
:1027D400704721F4801101EB0451F0BC70470042B2
:1027E40018BF41F00101B6EB410F04BFF0BC7047C4
:1027F4004FF0FE4141F478010020F0BC704783F0B3
:102804000043841A71EB030705D287F00047001BCD
:10281400B94112197B415FF07F4656F4600616EA0F
:10282400430FCAD0B6EB410F40F28C800C0DA4EBE1
:102834001357C90241EA5051C00241F00041DB0282
:1028440043EA5253D20243F00043D7F120065AD34D
:1028540002FA06FCFA4003FA06F52A43FB401CEA96
:102864000C0F18BF42F00102801A9941E30A640573
:10287400640D11F0404F2ED427D1002902BF014628
:102884000020203C00295BD0B1F5803F3FBF103CC5
:10289400090441EA10410004B1F1807F3FBF083CC4
:1028A400090241EA10610002B1F1805F3FBF043CBC
:1028B400090141EA1071000111F0404F01BF023CCF
:1028C400890041EA9071800009425FBF013C4900E0
:1028D40041EAD0714000002C11DD420521F0004195
:1028E400C00A40EA4150C90A41EAC371460872F17C
:1028F400004250F1000051EB0451F0BC704700203D
:10290400D907F0BC7047A7F12007202F0CD2C7F1DC
:10291400200603FA06F5FB402A4318BF43F00103DF
:10292400C01A61F10001A1E721F00041C00A40EAA8
:102934004150C90A01EB0451F0BC7047002000214A
:10294400F0BC7047004218BF41F00101B6EB410FE3
:102954007FF44EAFB6EB430F3FF44AAFF0BC704781
:10296400F0B5574F81EA030517EA010E1EBF9EEA30
:10297400070F17EA030494EA070F64D04EEAD57EE2
:10298400A64421EA470141F4801123EA470343F4B2
:102994008013A1FB0247A0FB036536197D41A1FB0F
:1029A400034747F10003A0FB0217F619654153F1F1
:1029B4000003094218BF46F001061427B3F5007F4F
:1029C40047F1000734BF3F4A3F4ABEEB020E31D401
:1029D400C7F1200403FA04F105FA04F025FA07F21A
:1029E400114326FA07F2104316FA04F421F4801175
:1029F4004FEA5E0741EA47010AD0B4F1004F50F1B3
:102A0400000041F10001B4F1004F08BF20F00100C3
:102A14002B4F1EEA070F10D041EACE71BE453CBFD2
:102A2400BDE8F04070472649002041EACE71BDE878
:102A3400F04070471EEB020EF5D44FEACE71002031
:102A4400BDE8F0407047394204BF01F00041002066
:102A5400004218BF41F001013B4204BF03F00043B0
:102A64000022124218BF43F0010307EA0304BC42E8
:102A740018BF9EEA070F05D005F000410020BDE80D
:102A8400F040704721F0004123F00043B9420FD8D1
:102A9400BB420DD8002918BF002B09D005F0004116
:102AA40041F0FE4141F470010020BDE8F040704760
:102AB4004FF0FE4141F478010020BDE8F04070473A
:102AC4000000F07F0000F03F0000E03FF0B581EA35
:102AD400030E0EF0004E814F17EA41051EBF95EA22
:102AE400070F17EA430494EA070F00F0C5806D0D41
:102AF400A5EB545707F580674FF0004646EAC1241A
:102B040044EA5054C00246EAC32343EA5253D20271
:102B1400801A9C4104D20018644180185C41013F32
:102B24005B084FEA32020025002140F001004FF01B
:102B3400070604E0801A9C4136D340416441801A60
:102B44009C4136D340416441801A9C4136D3404174
:102B54006441801A9C4136D340416441801A9C41AF
:102B640036D340416441013E17D0801A9C4136D38C
:102B740040416441801A9C4136D340416441801AEB
:102B84009C4136D340416441090201EB15612D0299
:102B9400454020F0FF004540CCE7801A9C4156D3C5
:102BA40035E080185C41C8D20018644180185C414B
:102BB400C8D20018644180185C41C8D2001864412E
:102BC40080185C41C8D20018644180185C41C8D2A6
:102BD40000186441013E17D080185C41C8D2001827
:102BE400644180185C41C8D20018644180185C417B
:102BF400C8D200186441090201EB15612D02454059
:102C040020F0FF004540CCE780185C411FD3420907
:102C140018BF44F00104490101EBD56100F01F0025
:102C240000EB451021F4801141EA0E01013041F11D
:102C34000001244208BF20F00100B7F5006F3EDA1E
:102C4400013F49DD01EB0751BDE8F0407047490100
:102C540001EBD56100F01F0000EB451021F4801159
:102C640041EA0E01B7F5006F29DA013F34DD01EBCB
:102C74000751BDE8F0407047004218BF41F0010120
:102C8400124218BF43F00103B7EB410F2CBFB7EB5F
:102C9400430F1CE0B7EB410F04BFB7EB430F16E043
:102CA40017EA410F04BF17EA430F10E017EA410F78
:102CB40012D017EA430F02D0B7EB430F0CD04EF0FB
:102CC400FE4141F470010020BDE8F04070474FF030
:102CD400FE4141F47801F6E77146F4E70000E0FFB5
:102CE4002DE9F843074600F031FA4FF07E510446CF
:102CF400FFF7D4FC002800F08B8021464FF07E5073
:102D0400FFF7B6FB03250446022643492046FFF796
:102D1400C5FCC8B141492046FFF740FB4FF07C5148
:102D2400FFF7A4FA4FF07C51FFF7A0FA2146FFF712
:102D34009FFA3B4906462046FFF79AFA0146304679
:102D4400FFF796FB2E460446204600F0FFF935496E
:102D5400FFF7A4FC002843D021462046FFF71EFBC2
:102D640031490546FFF71AFB3049FFF77FFA014660
:102D74002846FFF713FB2E49FFF778FA0146284649
:102D8400FFF70CFB2B49FFF771FA2B4980462846C5
:102D9400FFF76EFA2946FFF701FB2849FFF768FAA7
:102DA40001462846FFF7FAFA2549FFF761FA41463A
:102DB40081462846FFF7F2FA494680462846FFF73F
:102DC400EDFA2049FFF754FA01464046FFF750FB5D
:102DD4002146FFF7E3FA01462046FFF749FA044685
:102DE400012E12DD04F10044174B204653F826103F
:102DF400FFF73EFA044638460021FFF737FC08B1D6
:102E040004F100442046BDE8F883002EF3D0EBE73C
:102E14000646012579E700BFA330893EAF673B3FF3
:102E2400D7B3DD3FFFE6DB2ED76B56BFFBE9074187
:102E3400FE0BA44133055B414F62704152506E4218
:102E44009050AC42E64324428032000870B50C46F0
:102E5400054600212046FFF7FBFB28B10021284648
:102E6400FFF7F6FB00283ED1204600F06FF9064636
:102E7400284600F06BF901463046FFF7F7FB88B1AE
:102E840029462046FFF7F4FA00F060F91A49FFF7E3
:102E9400EDFB38B128460021FFF7E8FB08BB174DCE
:102EA400284670BD21462846FFF7E2FAFFF718FFCF
:102EB400002105462046FFF7D9FB0028F0D0002169
:102EC4002846FFF7EBFB30B128460D49FFF7CEF952
:102ED4000546284670BD28460949FFF7C9F9054645
:102EE400DEE7084DDCE700F067F9074B074D1B6888
:102EF4000360284670BD00BF08E53C1EDB0FC93FD8
:102F0400DB0F4940DB0FC9BF90320008000080FF8F
:102F140030B5002183B00446FFF79AFB00283DD169
:102F240000212046FFF7A2FB00283AD101A9204640
:102F340000F02CF901992046494200F00BF91D4993
:102F44000546FFF72BFA1C49FFF792F904460146A0
:102F54002846FFF78DFA2146FFF78AF94FF0FF3133
:102F640000F0F8F8044601462846FFF781FA2146A6
:102F7400FFF77EF94FF0FF3100F0ECF8019C0346B7
:102F8400E20705D50D49FFF709FA03460134019418
:102F94006110184600F0DEF803B030BD204603B0DF
:102FA40030BD00F009F90346054A064812681A6064
:102FB40003B030BDBA14173FA8A9D53EF304353F7A
:102FC40090320008000080FF2DE9F843074600F026
:102FD400BDF850490446FFF749FB00285BD14FF088
:102FE4007C512046FFF75AFB002866D12146204633
:102FF400FFF7D4F90026054647492846FFF7CEF9DE
:103004004649FFF735F901462846FFF7C7F9444911
:10301400FFF72CF901462846FFF7C0F94149FFF7AD
:1030240027F901462846FFF7B9F93F49FFF71EF98A
:103034003E4980462846FFF719F92946FFF7AEF9BD
:103044003B49FFF715F901462846FFF7A7F9394927
:10305400FFF70CF901462846FFF7A0F93649FFF7B8
:1030640007F9414681462846FFF798F949468046C4
:103074002846FFF793F93149FFF7F8F8014640462F
:10308400FFF7F6F92146FFF789F901462046FFF7D5
:10309400EFF8044600E0002621463046FFF7E8F842
:1030A40001463046FFF7E4F8002104463846FFF7AE
:1030B400DDFA90B92046BDE8F8834FF07E512046F2
:1030C400FFF7ECFA70B100F077F81D4A1D4B146855
:1030D4001B6803602046BDE8F88304F100442046E1
:1030E400BDE8F88321464FF07C50FFF7BFF84FF05E
:1030F4007C51FFF7BDF84FF07C51FFF74FF90546BF
:10310400FFF706FF4FF04041FFF748F90E4E044623
:1031140072E700BFFFE6DB2EEE5D32BFBB702241DB
:1031240065C11E423AD56442ADF2DA414397BE41CD
:10313400E5F3164378EEBE437992D0430236244336
:103144007C32000890320008DB0F493F20F0004039
:10315400704700BF4FF07F43B3EB400F98BF7047F9
:1031640013EA400204BF00F00040704711EB126202
:10317400DCBF00F000407047FF2A3CBF00EBC150A9
:10318400704740004FEA3300704700BF4FF07F4361
:10319400B3EB400F98BF704713EA400207D0120EFA
:1031A4007E3A0A6020EA530040F07C5070470A607F
:1031B40000F00040704700BF00B5FEF7C9FF024BA6
:1031C40018445DF804FB00BF080000008446002A90
:1031D4002DD010F0030F04D000F8011B013A26D0C3
:1031E400F7E7C9B241EA012141EA0141202A12D399
:1031F400A2F120022DE9F0030B460C460D460E46C3
:103204000F4688468946A0E8FA03203AFBD2BDE877
:10321400F00320320BD0042A05D340F8041B043AEF
:1032240005D0042AF9D200F8011B013AFBD160460B
:04323400704700BF20
:103238000200000004000000080000001000000068
:10324800E9080008250A0008710A0008310B00087F
:10325800610B0008650B0008750B00087D0B000862
:103268008D0B00089D0B0008A90B0008B90B00087E
:10327800D90B00080000C07F00000000920A063F3A
:0C328800DB0FC93F920A863F21000000C6
:103294000000000000000000010203040607080902
:0C32A40000A24A040500000064000000C5
:0400000508000131BD
:00000001FF
